{
  "_format": "hh-sol-artifact-1",
  "contractName": "BeefyVaultV7",
  "sourceName": "contracts/vaults/BeefyVaultV7.sol",
  "abi": [
    {
      "anonymous": false,
      "inputs": [
        {
          "indexed": true,
          "internalType": "address",
          "name": "owner",
          "type": "address"
        },
        {
          "indexed": true,
          "internalType": "address",
          "name": "spender",
          "type": "address"
        },
        {
          "indexed": false,
          "internalType": "uint256",
          "name": "value",
          "type": "uint256"
        }
      ],
      "name": "Approval",
      "type": "event"
    },
    {
      "anonymous": false,
      "inputs": [
        {
          "indexed": false,
          "internalType": "uint8",
          "name": "version",
          "type": "uint8"
        }
      ],
      "name": "Initialized",
      "type": "event"
    },
    {
      "anonymous": false,
      "inputs": [
        {
          "indexed": false,
          "internalType": "address",
          "name": "implementation",
          "type": "address"
        }
      ],
      "name": "NewStratCandidate",
      "type": "event"
    },
    {
      "anonymous": false,
      "inputs": [
        {
          "indexed": true,
          "internalType": "address",
          "name": "previousOwner",
          "type": "address"
        },
        {
          "indexed": true,
          "internalType": "address",
          "name": "newOwner",
          "type": "address"
        }
      ],
      "name": "OwnershipTransferred",
      "type": "event"
    },
    {
      "anonymous": false,
      "inputs": [
        {
          "indexed": true,
          "internalType": "address",
          "name": "from",
          "type": "address"
        },
        {
          "indexed": true,
          "internalType": "address",
          "name": "to",
          "type": "address"
        },
        {
          "indexed": false,
          "internalType": "uint256",
          "name": "value",
          "type": "uint256"
        }
      ],
      "name": "Transfer",
      "type": "event"
    },
    {
      "anonymous": false,
      "inputs": [
        {
          "indexed": false,
          "internalType": "address",
          "name": "implementation",
          "type": "address"
        }
      ],
      "name": "UpgradeStrat",
      "type": "event"
    },
    {
      "inputs": [
        {
          "internalType": "address",
          "name": "owner",
          "type": "address"
        },
        {
          "internalType": "address",
          "name": "spender",
          "type": "address"
        }
      ],
      "name": "allowance",
      "outputs": [
        {
          "internalType": "uint256",
          "name": "",
          "type": "uint256"
        }
      ],
      "stateMutability": "view",
      "type": "function"
    },
    {
      "inputs": [],
      "name": "approvalDelay",
      "outputs": [
        {
          "internalType": "uint256",
          "name": "",
          "type": "uint256"
        }
      ],
      "stateMutability": "view",
      "type": "function"
    },
    {
      "inputs": [
        {
          "internalType": "address",
          "name": "spender",
          "type": "address"
        },
        {
          "internalType": "uint256",
          "name": "amount",
          "type": "uint256"
        }
      ],
      "name": "approve",
      "outputs": [
        {
          "internalType": "bool",
          "name": "",
          "type": "bool"
        }
      ],
      "stateMutability": "nonpayable",
      "type": "function"
    },
    {
      "inputs": [],
      "name": "available",
      "outputs": [
        {
          "internalType": "uint256",
          "name": "",
          "type": "uint256"
        }
      ],
      "stateMutability": "view",
      "type": "function"
    },
    {
      "inputs": [],
      "name": "balance",
      "outputs": [
        {
          "internalType": "uint256",
          "name": "",
          "type": "uint256"
        }
      ],
      "stateMutability": "view",
      "type": "function"
    },
    {
      "inputs": [
        {
          "internalType": "address",
          "name": "account",
          "type": "address"
        }
      ],
      "name": "balanceOf",
      "outputs": [
        {
          "internalType": "uint256",
          "name": "",
          "type": "uint256"
        }
      ],
      "stateMutability": "view",
      "type": "function"
    },
    {
      "inputs": [],
      "name": "decimals",
      "outputs": [
        {
          "internalType": "uint8",
          "name": "",
          "type": "uint8"
        }
      ],
      "stateMutability": "view",
      "type": "function"
    },
    {
      "inputs": [
        {
          "internalType": "address",
          "name": "spender",
          "type": "address"
        },
        {
          "internalType": "uint256",
          "name": "subtractedValue",
          "type": "uint256"
        }
      ],
      "name": "decreaseAllowance",
      "outputs": [
        {
          "internalType": "bool",
          "name": "",
          "type": "bool"
        }
      ],
      "stateMutability": "nonpayable",
      "type": "function"
    },
    {
      "inputs": [
        {
          "internalType": "uint256",
          "name": "_amount",
          "type": "uint256"
        }
      ],
      "name": "deposit",
      "outputs": [],
      "stateMutability": "nonpayable",
      "type": "function"
    },
    {
      "inputs": [],
      "name": "depositAll",
      "outputs": [],
      "stateMutability": "nonpayable",
      "type": "function"
    },
    {
      "inputs": [],
      "name": "earn",
      "outputs": [],
      "stateMutability": "nonpayable",
      "type": "function"
    },
    {
      "inputs": [],
      "name": "getPricePerFullShare",
      "outputs": [
        {
          "internalType": "uint256",
          "name": "",
          "type": "uint256"
        }
      ],
      "stateMutability": "view",
      "type": "function"
    },
    {
      "inputs": [
        {
          "internalType": "address",
          "name": "_token",
          "type": "address"
        }
      ],
      "name": "inCaseTokensGetStuck",
      "outputs": [],
      "stateMutability": "nonpayable",
      "type": "function"
    },
    {
      "inputs": [
        {
          "internalType": "address",
          "name": "spender",
          "type": "address"
        },
        {
          "internalType": "uint256",
          "name": "addedValue",
          "type": "uint256"
        }
      ],
      "name": "increaseAllowance",
      "outputs": [
        {
          "internalType": "bool",
          "name": "",
          "type": "bool"
        }
      ],
      "stateMutability": "nonpayable",
      "type": "function"
    },
    {
      "inputs": [
        {
          "internalType": "contract IStrategyV7",
          "name": "_strategy",
          "type": "address"
        },
        {
          "internalType": "string",
          "name": "_name",
          "type": "string"
        },
        {
          "internalType": "string",
          "name": "_symbol",
          "type": "string"
        }
      ],
      "name": "initialize",
      "outputs": [],
      "stateMutability": "nonpayable",
      "type": "function"
    },
    {
      "inputs": [],
      "name": "name",
      "outputs": [
        {
          "internalType": "string",
          "name": "",
          "type": "string"
        }
      ],
      "stateMutability": "view",
      "type": "function"
    },
    {
      "inputs": [],
      "name": "owner",
      "outputs": [
        {
          "internalType": "address",
          "name": "",
          "type": "address"
        }
      ],
      "stateMutability": "view",
      "type": "function"
    },
    {
      "inputs": [
        {
          "internalType": "address",
          "name": "_implementation",
          "type": "address"
        }
      ],
      "name": "proposeStrat",
      "outputs": [],
      "stateMutability": "nonpayable",
      "type": "function"
    },
    {
      "inputs": [],
      "name": "renounceOwnership",
      "outputs": [],
      "stateMutability": "nonpayable",
      "type": "function"
    },
    {
      "inputs": [],
      "name": "stratCandidate",
      "outputs": [
        {
          "internalType": "address",
          "name": "implementation",
          "type": "address"
        },
        {
          "internalType": "uint256",
          "name": "proposedTime",
          "type": "uint256"
        }
      ],
      "stateMutability": "view",
      "type": "function"
    },
    {
      "inputs": [],
      "name": "strategy",
      "outputs": [
        {
          "internalType": "contract IStrategyV7",
          "name": "",
          "type": "address"
        }
      ],
      "stateMutability": "view",
      "type": "function"
    },
    {
      "inputs": [],
      "name": "symbol",
      "outputs": [
        {
          "internalType": "string",
          "name": "",
          "type": "string"
        }
      ],
      "stateMutability": "view",
      "type": "function"
    },
    {
      "inputs": [],
      "name": "totalSupply",
      "outputs": [
        {
          "internalType": "uint256",
          "name": "",
          "type": "uint256"
        }
      ],
      "stateMutability": "view",
      "type": "function"
    },
    {
      "inputs": [
        {
          "internalType": "address",
          "name": "to",
          "type": "address"
        },
        {
          "internalType": "uint256",
          "name": "amount",
          "type": "uint256"
        }
      ],
      "name": "transfer",
      "outputs": [
        {
          "internalType": "bool",
          "name": "",
          "type": "bool"
        }
      ],
      "stateMutability": "nonpayable",
      "type": "function"
    },
    {
      "inputs": [
        {
          "internalType": "address",
          "name": "from",
          "type": "address"
        },
        {
          "internalType": "address",
          "name": "to",
          "type": "address"
        },
        {
          "internalType": "uint256",
          "name": "amount",
          "type": "uint256"
        }
      ],
      "name": "transferFrom",
      "outputs": [
        {
          "internalType": "bool",
          "name": "",
          "type": "bool"
        }
      ],
      "stateMutability": "nonpayable",
      "type": "function"
    },
    {
      "inputs": [
        {
          "internalType": "address",
          "name": "newOwner",
          "type": "address"
        }
      ],
      "name": "transferOwnership",
      "outputs": [],
      "stateMutability": "nonpayable",
      "type": "function"
    },
    {
      "inputs": [],
      "name": "upgradeStrat",
      "outputs": [],
      "stateMutability": "nonpayable",
      "type": "function"
    },
    {
      "inputs": [],
      "name": "want",
      "outputs": [
        {
          "internalType": "contract IERC20Upgradeable",
          "name": "",
          "type": "address"
        }
      ],
      "stateMutability": "view",
      "type": "function"
    },
    {
      "inputs": [
        {
          "internalType": "uint256",
          "name": "_shares",
          "type": "uint256"
        }
      ],
      "name": "withdraw",
      "outputs": [],
      "stateMutability": "nonpayable",
      "type": "function"
    },
    {
      "inputs": [],
      "name": "withdrawAll",
      "outputs": [],
      "stateMutability": "nonpayable",
      "type": "function"
    }
  ],
  "bytecode": "0x608060405234801561001057600080fd5b506120e3806100206000396000f3fe608060405234801561001057600080fd5b50600436106101da5760003560e01c80638da5cb5b11610104578063b6b55f25116100a2578063def68a9c11610071578063def68a9c146103d1578063e2d1e75c146103e4578063e6685244146103ed578063f2fde38b146103f557600080fd5b8063b6b55f251461039b578063d389800f146103ae578063dd62ed3e146103b6578063de5f6268146103c957600080fd5b8063a457c2d7116100de578063a457c2d71461035a578063a8c62e761461036d578063a9059cbb14610380578063b69ef8a81461039357600080fd5b80638da5cb5b1461032e578063906571471461033f57806395d89b411461035257600080fd5b8063395093511161017c578063715018a61161014b578063715018a6146102e057806376dfabb8146102e857806377c7b8fc1461031e578063853828b61461032657600080fd5b8063395093511461028957806348a0d7541461029c5780635b12ff9b146102a457806370a08231146102b757600080fd5b80631f1fcd51116101b85780631f1fcd511461023257806323b872dd146102525780632e1a7d4d14610265578063313ce5671461027a57600080fd5b806306fdde03146101df578063095ea7b3146101fd57806318160ddd14610220575b600080fd5b6101e7610408565b6040516101f49190611ce9565b60405180910390f35b61021061020b366004611d31565b61049a565b60405190151581526020016101f4565b6035545b6040519081526020016101f4565b61023a6104b2565b6040516001600160a01b0390911681526020016101f4565b610210610260366004611d5d565b610525565b610278610273366004611d9e565b610549565b005b604051601281526020016101f4565b610210610297366004611d31565b610725565b610224610747565b6102786102b2366004611db7565b6107bb565b6102246102c5366004611db7565b6001600160a01b031660009081526033602052604090205490565b6102786109b5565b60c95460ca546102ff916001600160a01b03169082565b604080516001600160a01b0390931683526020830191909152016101f4565b6102246109c9565b610278610a0d565b6065546001600160a01b031661023a565b61027861034d366004611e7e565b610a26565b6101e7610b67565b610210610368366004611d31565b610b76565b60cb5461023a906001600160a01b031681565b61021061038e366004611d31565b610bf1565b610224610bff565b6102786103a9366004611d9e565b610ce9565b610278610df5565b6102246103c4366004611ef4565b610e86565b610278610eb1565b6102786103df366004611db7565b610f26565b61022460cc5481565b610278611005565b610278610403366004611db7565b61113b565b60606036805461041790611f2d565b80601f016020809104026020016040519081016040528092919081815260200182805461044390611f2d565b80156104905780601f1061046557610100808354040283529160200191610490565b820191906000526020600020905b81548152906001019060200180831161047357829003601f168201915b5050505050905090565b6000336104a88185856111b1565b5060019392505050565b60cb5460408051631f1fcd5160e01b815290516000926001600160a01b031691631f1fcd519160048083019260209291908290030181865afa1580156104fc573d6000803e3d6000fd5b505050506040513d601f19601f820116820180604052508101906105209190611f68565b905090565b6000336105338582856112d5565b61053e858585611349565b506001949350505050565b600061055460355490565b8261055d610bff565b6105679190611f9b565b6105719190611fba565b905061057d33836114f4565b60006105876104b2565b6040516370a0823160e01b81523060048201526001600160a01b0391909116906370a0823190602401602060405180830381865afa1580156105cd573d6000803e3d6000fd5b505050506040513d601f19601f820116820180604052508101906105f19190611fdc565b9050818110156107035760006106078284611ff5565b60cb54604051632e1a7d4d60e01b8152600481018390529192506001600160a01b031690632e1a7d4d90602401600060405180830381600087803b15801561064e57600080fd5b505af1158015610662573d6000803e3d6000fd5b5050505060006106706104b2565b6040516370a0823160e01b81523060048201526001600160a01b0391909116906370a0823190602401602060405180830381865afa1580156106b6573d6000803e3d6000fd5b505050506040513d601f19601f820116820180604052508101906106da9190611fdc565b905060006106e88483611ff5565b9050828110156106ff576106fc818561200c565b94505b5050505b61072033836107106104b2565b6001600160a01b03169190611628565b505050565b6000336104a88185856107388383610e86565b610742919061200c565b6111b1565b60006107516104b2565b6040516370a0823160e01b81523060048201526001600160a01b0391909116906370a0823190602401602060405180830381865afa158015610797573d6000803e3d6000fd5b505050506040513d601f19601f820116820180604052508101906105209190611fdc565b6107c361168b565b806001600160a01b031663fbfa77cf6040518163ffffffff1660e01b8152600401602060405180830381865afa158015610801573d6000803e3d6000fd5b505050506040513d601f19601f820116820180604052508101906108259190611f68565b6001600160a01b0316306001600160a01b0316146108945760405162461bcd60e51b815260206004820152602160248201527f50726f706f73616c206e6f742076616c696420666f722074686973205661756c6044820152601d60fa1b60648201526084015b60405180910390fd5b806001600160a01b0316631f1fcd516040518163ffffffff1660e01b8152600401602060405180830381865afa1580156108d2573d6000803e3d6000fd5b505050506040513d601f19601f820116820180604052508101906108f69190611f68565b6001600160a01b03166109076104b2565b6001600160a01b03161461094e5760405162461bcd60e51b815260206004820152600e60248201526d111a5999995c995b9d081dd85b9d60921b604482015260640161088b565b6040805180820182526001600160a01b03831680825242602092830181905260c980546001600160a01b0319168317905560ca5591519182527f1aae2ec5647db56da2d513de40528ba3565c6057525637050660c4323bbac7df910160405180910390a150565b6109bd61168b565b6109c760006116e5565b565b60006109d460355490565b15610a00576035546109e4610bff565b6109f690670de0b6b3a7640000611f9b565b6105209190611fba565b50670de0b6b3a764000090565b336000908152603360205260409020546109c790610549565b600054610100900460ff1615808015610a465750600054600160ff909116105b80610a605750303b158015610a60575060005460ff166001145b610ac35760405162461bcd60e51b815260206004820152602e60248201527f496e697469616c697a61626c653a20636f6e747261637420697320616c72656160448201526d191e481a5b9a5d1a585b1a5e995960921b606482015260840161088b565b6000805460ff191660011790558015610ae6576000805461ff0019166101001790555b610af08383611737565b610af8611768565b610b00611797565b60cb80546001600160a01b0319166001600160a01b0386161790558015610b61576000805461ff0019169055604051600181527f7f26b83ff96e1f2b6a682f133852f6798a09c465da95921460cefb38474024989060200160405180910390a15b50505050565b60606037805461041790611f2d565b60003381610b848286610e86565b905083811015610be45760405162461bcd60e51b815260206004820152602560248201527f45524332303a2064656372656173656420616c6c6f77616e63652062656c6f77604482015264207a65726f60d81b606482015260840161088b565b61053e82868684036111b1565b6000336104a8818585611349565b60cb546040805163722713f760e01b815290516000926001600160a01b03169163722713f79160048083019260209291908290030181865afa158015610c49573d6000803e3d6000fd5b505050506040513d601f19601f82011682018060405250810190610c6d9190611fdc565b610c756104b2565b6040516370a0823160e01b81523060048201526001600160a01b0391909116906370a0823190602401602060405180830381865afa158015610cbb573d6000803e3d6000fd5b505050506040513d601f19601f82011682018060405250810190610cdf9190611fdc565b610520919061200c565b610cf16117c6565b60cb60009054906101000a90046001600160a01b03166001600160a01b031663573fef0a6040518163ffffffff1660e01b8152600401600060405180830381600087803b158015610d4157600080fd5b505af1158015610d55573d6000803e3d6000fd5b505050506000610d63610bff565b9050610d84333084610d736104b2565b6001600160a01b0316929190611820565b610d8c610df5565b6000610d96610bff565b9050610da28282611ff5565b92506000610daf60355490565b610dba575082610ddb565b82610dc460355490565b610dce9086611f9b565b610dd89190611fba565b90505b610de53382611858565b505050610df26001609755565b50565b6000610dff610747565b60cb54909150610e1b906001600160a01b0316826107106104b2565b60cb60009054906101000a90046001600160a01b03166001600160a01b031663d0e30db06040518163ffffffff1660e01b8152600401600060405180830381600087803b158015610e6b57600080fd5b505af1158015610e7f573d6000803e3d6000fd5b5050505050565b6001600160a01b03918216600090815260346020908152604080832093909416825291909152205490565b6109c7610ebc6104b2565b6040516370a0823160e01b81523360048201526001600160a01b0391909116906370a0823190602401602060405180830381865afa158015610f02573d6000803e3d6000fd5b505050506040513d601f19601f820116820180604052508101906103a99190611fdc565b610f2e61168b565b610f366104b2565b6001600160a01b0316816001600160a01b03161415610f805760405162461bcd60e51b815260206004820152600660248201526510ba37b5b2b760d11b604482015260640161088b565b6040516370a0823160e01b81523060048201526000906001600160a01b038316906370a0823190602401602060405180830381865afa158015610fc7573d6000803e3d6000fd5b505050506040513d601f19601f82011682018060405250810190610feb9190611fdc565b90506110016001600160a01b0383163383611628565b5050565b61100d61168b565b60c9546001600160a01b031661105d5760405162461bcd60e51b81526020600482015260156024820152745468657265206973206e6f2063616e64696461746560581b604482015260640161088b565b60c9546040516001600160a01b0390911681527f7f37d440e85aba7fbf641c4bda5ca4ef669a80bffaacde2aa8d9feb1b048c82c9060200160405180910390a160cb60009054906101000a90046001600160a01b03166001600160a01b031663fb6177876040518163ffffffff1660e01b8152600401600060405180830381600087803b1580156110ed57600080fd5b505af1158015611101573d6000803e3d6000fd5b505060c9805460cb80546001600160a01b03199081166001600160a01b03841617909155169055505064012a05f20060ca556109c7610df5565b61114361168b565b6001600160a01b0381166111a85760405162461bcd60e51b815260206004820152602660248201527f4f776e61626c653a206e6577206f776e657220697320746865207a65726f206160448201526564647265737360d01b606482015260840161088b565b610df2816116e5565b6001600160a01b0383166112135760405162461bcd60e51b8152602060048201526024808201527f45524332303a20617070726f76652066726f6d20746865207a65726f206164646044820152637265737360e01b606482015260840161088b565b6001600160a01b0382166112745760405162461bcd60e51b815260206004820152602260248201527f45524332303a20617070726f766520746f20746865207a65726f206164647265604482015261737360f01b606482015260840161088b565b6001600160a01b0383811660008181526034602090815260408083209487168084529482529182902085905590518481527f8c5be1e5ebec7d5bd14f71427d1e84f3dd0314c0f7b2291e5b200ac8c7c3b925910160405180910390a3505050565b60006112e18484610e86565b90506000198114610b61578181101561133c5760405162461bcd60e51b815260206004820152601d60248201527f45524332303a20696e73756666696369656e7420616c6c6f77616e6365000000604482015260640161088b565b610b6184848484036111b1565b6001600160a01b0383166113ad5760405162461bcd60e51b815260206004820152602560248201527f45524332303a207472616e736665722066726f6d20746865207a65726f206164604482015264647265737360d81b606482015260840161088b565b6001600160a01b03821661140f5760405162461bcd60e51b815260206004820152602360248201527f45524332303a207472616e7366657220746f20746865207a65726f206164647260448201526265737360e81b606482015260840161088b565b6001600160a01b038316600090815260336020526040902054818110156114875760405162461bcd60e51b815260206004820152602660248201527f45524332303a207472616e7366657220616d6f756e7420657863656564732062604482015265616c616e636560d01b606482015260840161088b565b6001600160a01b0380851660008181526033602052604080822086860390559286168082529083902080548601905591517fddf252ad1be2c89b69c2b068fc378daa952ba7f163c4a11628f55a4df523b3ef906114e79086815260200190565b60405180910390a3610b61565b6001600160a01b0382166115545760405162461bcd60e51b815260206004820152602160248201527f45524332303a206275726e2066726f6d20746865207a65726f206164647265736044820152607360f81b606482015260840161088b565b6001600160a01b038216600090815260336020526040902054818110156115c85760405162461bcd60e51b815260206004820152602260248201527f45524332303a206275726e20616d6f756e7420657863656564732062616c616e604482015261636560f01b606482015260840161088b565b6001600160a01b03831660008181526033602090815260408083208686039055603580548790039055518581529192917fddf252ad1be2c89b69c2b068fc378daa952ba7f163c4a11628f55a4df523b3ef910160405180910390a3505050565b6040516001600160a01b03831660248201526044810182905261072090849063a9059cbb60e01b906064015b60408051601f198184030181529190526020810180516001600160e01b03166001600160e01b031990931692909217909152611920565b6065546001600160a01b031633146109c75760405162461bcd60e51b815260206004820181905260248201527f4f776e61626c653a2063616c6c6572206973206e6f7420746865206f776e6572604482015260640161088b565b606580546001600160a01b038381166001600160a01b0319831681179093556040519116919082907f8be0079c531659141344cd1fd0a4f28419497f9722a3daafe3b4186f6b6457e090600090a35050565b600054610100900460ff1661175e5760405162461bcd60e51b815260040161088b90612024565b61100182826119f2565b600054610100900460ff1661178f5760405162461bcd60e51b815260040161088b90612024565b6109c7611a40565b600054610100900460ff166117be5760405162461bcd60e51b815260040161088b90612024565b6109c7611a70565b600260975414156118195760405162461bcd60e51b815260206004820152601f60248201527f5265656e7472616e637947756172643a207265656e7472616e742063616c6c00604482015260640161088b565b6002609755565b6040516001600160a01b0380851660248301528316604482015260648101829052610b619085906323b872dd60e01b90608401611654565b6001600160a01b0382166118ae5760405162461bcd60e51b815260206004820152601f60248201527f45524332303a206d696e7420746f20746865207a65726f206164647265737300604482015260640161088b565b80603560008282546118c0919061200c565b90915550506001600160a01b0382166000818152603360209081526040808320805486019055518481527fddf252ad1be2c89b69c2b068fc378daa952ba7f163c4a11628f55a4df523b3ef910160405180910390a35050565b6001609755565b6000611975826040518060400160405280602081526020017f5361666545524332303a206c6f772d6c6576656c2063616c6c206661696c6564815250856001600160a01b0316611a979092919063ffffffff16565b8051909150156107205780806020019051810190611993919061206f565b6107205760405162461bcd60e51b815260206004820152602a60248201527f5361666545524332303a204552433230206f7065726174696f6e20646964206e6044820152691bdd081cdd58d8d9595960b21b606482015260840161088b565b600054610100900460ff16611a195760405162461bcd60e51b815260040161088b90612024565b8151611a2c906036906020850190611c24565b508051610720906037906020840190611c24565b600054610100900460ff16611a675760405162461bcd60e51b815260040161088b90612024565b6109c7336116e5565b600054610100900460ff166119195760405162461bcd60e51b815260040161088b90612024565b6060611aa68484600085611aae565b949350505050565b606082471015611b0f5760405162461bcd60e51b815260206004820152602660248201527f416464726573733a20696e73756666696369656e742062616c616e636520666f6044820152651c8818d85b1b60d21b606482015260840161088b565b600080866001600160a01b03168587604051611b2b9190612091565b60006040518083038185875af1925050503d8060008114611b68576040519150601f19603f3d011682016040523d82523d6000602084013e611b6d565b606091505b5091509150611b7e87838387611b89565b979650505050505050565b60608315611bf5578251611bee576001600160a01b0385163b611bee5760405162461bcd60e51b815260206004820152601d60248201527f416464726573733a2063616c6c20746f206e6f6e2d636f6e7472616374000000604482015260640161088b565b5081611aa6565b611aa68383815115611c0a5781518083602001fd5b8060405162461bcd60e51b815260040161088b9190611ce9565b828054611c3090611f2d565b90600052602060002090601f016020900481019282611c525760008555611c98565b82601f10611c6b57805160ff1916838001178555611c98565b82800160010185558215611c98579182015b82811115611c98578251825591602001919060010190611c7d565b50611ca4929150611ca8565b5090565b5b80821115611ca45760008155600101611ca9565b60005b83811015611cd8578181015183820152602001611cc0565b83811115610b615750506000910152565b6020815260008251806020840152611d08816040850160208701611cbd565b601f01601f19169190910160400192915050565b6001600160a01b0381168114610df257600080fd5b60008060408385031215611d4457600080fd5b8235611d4f81611d1c565b946020939093013593505050565b600080600060608486031215611d7257600080fd5b8335611d7d81611d1c565b92506020840135611d8d81611d1c565b929592945050506040919091013590565b600060208284031215611db057600080fd5b5035919050565b600060208284031215611dc957600080fd5b8135611dd481611d1c565b9392505050565b634e487b7160e01b600052604160045260246000fd5b600082601f830112611e0257600080fd5b813567ffffffffffffffff80821115611e1d57611e1d611ddb565b604051601f8301601f19908116603f01168101908282118183101715611e4557611e45611ddb565b81604052838152866020858801011115611e5e57600080fd5b836020870160208301376000602085830101528094505050505092915050565b600080600060608486031215611e9357600080fd5b8335611e9e81611d1c565b9250602084013567ffffffffffffffff80821115611ebb57600080fd5b611ec787838801611df1565b93506040860135915080821115611edd57600080fd5b50611eea86828701611df1565b9150509250925092565b60008060408385031215611f0757600080fd5b8235611f1281611d1c565b91506020830135611f2281611d1c565b809150509250929050565b600181811c90821680611f4157607f821691505b60208210811415611f6257634e487b7160e01b600052602260045260246000fd5b50919050565b600060208284031215611f7a57600080fd5b8151611dd481611d1c565b634e487b7160e01b600052601160045260246000fd5b6000816000190483118215151615611fb557611fb5611f85565b500290565b600082611fd757634e487b7160e01b600052601260045260246000fd5b500490565b600060208284031215611fee57600080fd5b5051919050565b60008282101561200757612007611f85565b500390565b6000821982111561201f5761201f611f85565b500190565b6020808252602b908201527f496e697469616c697a61626c653a20636f6e7472616374206973206e6f74206960408201526a6e697469616c697a696e6760a81b606082015260800190565b60006020828403121561208157600080fd5b81518015158114611dd457600080fd5b600082516120a3818460208701611cbd565b919091019291505056fea26469706673582212201bd2cc1f7ce50d0b0c52318ed2b217b3bdfa5789ac085c5974f63b2f7a57ce1e64736f6c634300080c0033",
  "linkReferences": {},
  "deployedLinkReferences": {}
}