{
  "_format": "hh-sol-artifact-1",
  "contractName": "CapSingleStakeStrategy",
  "sourceName": "contracts/strategies/Cap/CapUsdcPoolStrategy.sol",
  "abi": [
    {
      "inputs": [
        {
          "internalType": "address",
          "name": "_vault",
          "type": "address"
        },
        {
          "internalType": "address",
          "name": "_pool",
          "type": "address"
        },
        {
          "internalType": "address",
          "name": "_rewards",
          "type": "address"
        },
        {
          "internalType": "address",
          "name": "_token",
          "type": "address"
        }
      ],
      "stateMutability": "nonpayable",
      "type": "constructor"
    },
    {
      "anonymous": false,
      "inputs": [
        {
          "indexed": false,
          "internalType": "uint256",
          "name": "fees",
          "type": "uint256"
        },
        {
          "indexed": false,
          "internalType": "uint256",
          "name": "amount",
          "type": "uint256"
        }
      ],
      "name": "ChargedFees",
      "type": "event"
    },
    {
      "anonymous": false,
      "inputs": [
        {
          "indexed": false,
          "internalType": "uint256",
          "name": "tvl",
          "type": "uint256"
        }
      ],
      "name": "Deposit",
      "type": "event"
    },
    {
      "anonymous": false,
      "inputs": [
        {
          "indexed": true,
          "internalType": "address",
          "name": "previousManager",
          "type": "address"
        },
        {
          "indexed": true,
          "internalType": "address",
          "name": "newManager",
          "type": "address"
        }
      ],
      "name": "ManagerTransferred",
      "type": "event"
    },
    {
      "anonymous": false,
      "inputs": [
        {
          "indexed": true,
          "internalType": "address",
          "name": "previousOwner",
          "type": "address"
        },
        {
          "indexed": true,
          "internalType": "address",
          "name": "newOwner",
          "type": "address"
        }
      ],
      "name": "OwnershipTransferred",
      "type": "event"
    },
    {
      "anonymous": false,
      "inputs": [
        {
          "indexed": false,
          "internalType": "address",
          "name": "account",
          "type": "address"
        }
      ],
      "name": "Paused",
      "type": "event"
    },
    {
      "anonymous": false,
      "inputs": [
        {
          "indexed": true,
          "internalType": "address",
          "name": "harvester",
          "type": "address"
        },
        {
          "indexed": false,
          "internalType": "uint256",
          "name": "wantTokenHarvested",
          "type": "uint256"
        },
        {
          "indexed": false,
          "internalType": "uint256",
          "name": "tvl",
          "type": "uint256"
        }
      ],
      "name": "StratHarvest",
      "type": "event"
    },
    {
      "anonymous": false,
      "inputs": [
        {
          "indexed": false,
          "internalType": "address",
          "name": "account",
          "type": "address"
        }
      ],
      "name": "Unpaused",
      "type": "event"
    },
    {
      "anonymous": false,
      "inputs": [
        {
          "indexed": false,
          "internalType": "uint256",
          "name": "tvl",
          "type": "uint256"
        }
      ],
      "name": "Withdraw",
      "type": "event"
    },
    {
      "inputs": [],
      "name": "DEV_FEE",
      "outputs": [
        {
          "internalType": "uint256",
          "name": "",
          "type": "uint256"
        }
      ],
      "stateMutability": "view",
      "type": "function"
    },
    {
      "inputs": [],
      "name": "balanceOf",
      "outputs": [
        {
          "internalType": "uint256",
          "name": "",
          "type": "uint256"
        }
      ],
      "stateMutability": "view",
      "type": "function"
    },
    {
      "inputs": [],
      "name": "balanceOfPool",
      "outputs": [
        {
          "internalType": "uint256",
          "name": "",
          "type": "uint256"
        }
      ],
      "stateMutability": "view",
      "type": "function"
    },
    {
      "inputs": [],
      "name": "balanceOfWant",
      "outputs": [
        {
          "internalType": "uint256",
          "name": "",
          "type": "uint256"
        }
      ],
      "stateMutability": "view",
      "type": "function"
    },
    {
      "inputs": [],
      "name": "beforeDeposit",
      "outputs": [],
      "stateMutability": "nonpayable",
      "type": "function"
    },
    {
      "inputs": [],
      "name": "deposit",
      "outputs": [],
      "stateMutability": "nonpayable",
      "type": "function"
    },
    {
      "inputs": [],
      "name": "gasprice",
      "outputs": [
        {
          "internalType": "address",
          "name": "",
          "type": "address"
        }
      ],
      "stateMutability": "view",
      "type": "function"
    },
    {
      "inputs": [],
      "name": "getDevFee",
      "outputs": [
        {
          "internalType": "uint256",
          "name": "",
          "type": "uint256"
        }
      ],
      "stateMutability": "view",
      "type": "function"
    },
    {
      "inputs": [],
      "name": "getStakingFee",
      "outputs": [
        {
          "internalType": "uint256",
          "name": "",
          "type": "uint256"
        }
      ],
      "stateMutability": "view",
      "type": "function"
    },
    {
      "inputs": [],
      "name": "harvest",
      "outputs": [],
      "stateMutability": "nonpayable",
      "type": "function"
    },
    {
      "inputs": [],
      "name": "harvestOnDeposit",
      "outputs": [
        {
          "internalType": "bool",
          "name": "",
          "type": "bool"
        }
      ],
      "stateMutability": "view",
      "type": "function"
    },
    {
      "inputs": [],
      "name": "lastDepositTime",
      "outputs": [
        {
          "internalType": "uint256",
          "name": "",
          "type": "uint256"
        }
      ],
      "stateMutability": "view",
      "type": "function"
    },
    {
      "inputs": [],
      "name": "lastHarvest",
      "outputs": [
        {
          "internalType": "uint256",
          "name": "",
          "type": "uint256"
        }
      ],
      "stateMutability": "view",
      "type": "function"
    },
    {
      "inputs": [],
      "name": "lastPausedTime",
      "outputs": [
        {
          "internalType": "uint256",
          "name": "",
          "type": "uint256"
        }
      ],
      "stateMutability": "view",
      "type": "function"
    },
    {
      "inputs": [],
      "name": "manager",
      "outputs": [
        {
          "internalType": "address",
          "name": "",
          "type": "address"
        }
      ],
      "stateMutability": "view",
      "type": "function"
    },
    {
      "inputs": [],
      "name": "owner",
      "outputs": [
        {
          "internalType": "address",
          "name": "",
          "type": "address"
        }
      ],
      "stateMutability": "view",
      "type": "function"
    },
    {
      "inputs": [],
      "name": "panic",
      "outputs": [],
      "stateMutability": "nonpayable",
      "type": "function"
    },
    {
      "inputs": [],
      "name": "pause",
      "outputs": [],
      "stateMutability": "nonpayable",
      "type": "function"
    },
    {
      "inputs": [],
      "name": "paused",
      "outputs": [
        {
          "internalType": "bool",
          "name": "",
          "type": "bool"
        }
      ],
      "stateMutability": "view",
      "type": "function"
    },
    {
      "inputs": [],
      "name": "pool",
      "outputs": [
        {
          "internalType": "address",
          "name": "",
          "type": "address"
        }
      ],
      "stateMutability": "view",
      "type": "function"
    },
    {
      "inputs": [],
      "name": "renounceOwnership",
      "outputs": [],
      "stateMutability": "nonpayable",
      "type": "function"
    },
    {
      "inputs": [],
      "name": "rewards",
      "outputs": [
        {
          "internalType": "address",
          "name": "",
          "type": "address"
        }
      ],
      "stateMutability": "view",
      "type": "function"
    },
    {
      "inputs": [],
      "name": "rewardsAvailable",
      "outputs": [
        {
          "internalType": "uint256",
          "name": "",
          "type": "uint256"
        }
      ],
      "stateMutability": "view",
      "type": "function"
    },
    {
      "inputs": [
        {
          "internalType": "uint256",
          "name": "fee",
          "type": "uint256"
        }
      ],
      "name": "setDevFee",
      "outputs": [],
      "stateMutability": "nonpayable",
      "type": "function"
    },
    {
      "inputs": [
        {
          "internalType": "bool",
          "name": "_harvestOnDeposit",
          "type": "bool"
        }
      ],
      "name": "setHarvestOnDeposit",
      "outputs": [],
      "stateMutability": "nonpayable",
      "type": "function"
    },
    {
      "inputs": [
        {
          "internalType": "bool",
          "name": "_shouldGasThrottle",
          "type": "bool"
        }
      ],
      "name": "setShouldGasThrottle",
      "outputs": [],
      "stateMutability": "nonpayable",
      "type": "function"
    },
    {
      "inputs": [
        {
          "internalType": "address",
          "name": "_stakingAddress",
          "type": "address"
        }
      ],
      "name": "setStakingAddress",
      "outputs": [],
      "stateMutability": "nonpayable",
      "type": "function"
    },
    {
      "inputs": [
        {
          "internalType": "uint256",
          "name": "fee",
          "type": "uint256"
        }
      ],
      "name": "setStakingFee",
      "outputs": [],
      "stateMutability": "nonpayable",
      "type": "function"
    },
    {
      "inputs": [],
      "name": "shouldGasThrottle",
      "outputs": [
        {
          "internalType": "bool",
          "name": "",
          "type": "bool"
        }
      ],
      "stateMutability": "view",
      "type": "function"
    },
    {
      "inputs": [],
      "name": "stakingAddress",
      "outputs": [
        {
          "internalType": "address",
          "name": "",
          "type": "address"
        }
      ],
      "stateMutability": "view",
      "type": "function"
    },
    {
      "inputs": [],
      "name": "token",
      "outputs": [
        {
          "internalType": "address",
          "name": "",
          "type": "address"
        }
      ],
      "stateMutability": "view",
      "type": "function"
    },
    {
      "inputs": [
        {
          "internalType": "address",
          "name": "newManager",
          "type": "address"
        }
      ],
      "name": "transferManager",
      "outputs": [],
      "stateMutability": "nonpayable",
      "type": "function"
    },
    {
      "inputs": [
        {
          "internalType": "address",
          "name": "newOwner",
          "type": "address"
        }
      ],
      "name": "transferOwnership",
      "outputs": [],
      "stateMutability": "nonpayable",
      "type": "function"
    },
    {
      "inputs": [],
      "name": "unpause",
      "outputs": [],
      "stateMutability": "nonpayable",
      "type": "function"
    },
    {
      "inputs": [],
      "name": "vault",
      "outputs": [
        {
          "internalType": "address",
          "name": "",
          "type": "address"
        }
      ],
      "stateMutability": "view",
      "type": "function"
    },
    {
      "inputs": [],
      "name": "want",
      "outputs": [
        {
          "internalType": "address",
          "name": "",
          "type": "address"
        }
      ],
      "stateMutability": "view",
      "type": "function"
    },
    {
      "inputs": [
        {
          "internalType": "uint256",
          "name": "_amount",
          "type": "uint256"
        }
      ],
      "name": "withdraw",
      "outputs": [],
      "stateMutability": "nonpayable",
      "type": "function"
    }
  ],
  "bytecode": "0x6080604052600380546001600160a81b03191674a43509661141f254f54d9a326e8ec851a0b953070117905564e8d4a51000600a556000600c553480156200004657600080fd5b506040516200236938038062002369833981016040819052620000699162000769565b6200007433620002a9565b6200007f33620002f9565b6001805460ff60a01b19169055600680546001600160a01b038087166001600160a01b03199283161790925560058054868416908316179055600780548584169083161790556004805492841692909116919091179055620000e06200034b565b6002600460009054906101000a90046001600160a01b03166001600160a01b031663313ce5676040518163ffffffff1660e01b8152600401602060405180830381865afa15801562000136573d6000803e3d6000fd5b505050506040513d601f19601f820116820180604052508101906200015c9190620007c6565b62000168919062000808565b6200017590600a6200092d565b620001829060056200093e565b600b55600480546040805163313ce56760e01b815290516001936001600160a01b039093169263313ce567928082019260209290918290030181865afa158015620001d1573d6000803e3d6000fd5b505050506040513d601f19601f82011682018060405250810190620001f79190620007c6565b62000203919062000808565b6200021090600a6200092d565b6200021d9060056200093e565b600d55600480546040805163313ce56760e01b815290516001600160a01b039092169263313ce5679282820192602092908290030181865afa15801562000268573d6000803e3d6000fd5b505050506040513d601f19601f820116820180604052508101906200028e9190620007c6565b6200029b90600a6200092d565b6009555062000a2492505050565b600080546001600160a01b038381166001600160a01b0319831681178455604051919092169283917f8be0079c531659141344cd1fd0a4f28419497f9722a3daafe3b4186f6b6457e09190a35050565b600180546001600160a01b038381166001600160a01b0319831681179093556040519116919082907f9cb45c728de594dab506a1f1a8554e24c8eeaf983618d5ec5dd7bc6f3c49feee90600090a35050565b60055460045462000378916001600160a01b0391821691166000196200037a602090811b62000b7517901c565b565b801580620003f85750604051636eb1769f60e11b81523060048201526001600160a01b03838116602483015284169063dd62ed3e90604401602060405180830381865afa158015620003d0573d6000803e3d6000fd5b505050506040513d601f19601f82011682018060405250810190620003f6919062000960565b155b620004705760405162461bcd60e51b815260206004820152603660248201527f5361666545524332303a20617070726f76652066726f6d206e6f6e2d7a65726f60448201527f20746f206e6f6e2d7a65726f20616c6c6f77616e63650000000000000000000060648201526084015b60405180910390fd5b604080516001600160a01b038416602482015260448082018490528251808303909101815260649091019091526020810180516001600160e01b0390811663095ea7b360e01b17909152620004c8918591620004cd16565b505050565b600062000529826040518060400160405280602081526020017f5361666545524332303a206c6f772d6c6576656c2063616c6c206661696c6564815250856001600160a01b0316620005ab60201b62000cc2179092919060201c565b805190915015620004c857808060200190518101906200054a91906200097a565b620004c85760405162461bcd60e51b815260206004820152602a60248201527f5361666545524332303a204552433230206f7065726174696f6e20646964206e6044820152691bdd081cdd58d8d9595960b21b606482015260840162000467565b6060620005bc8484600085620005c4565b949350505050565b606082471015620006275760405162461bcd60e51b815260206004820152602660248201527f416464726573733a20696e73756666696369656e742062616c616e636520666f6044820152651c8818d85b1b60d21b606482015260840162000467565b600080866001600160a01b03168587604051620006459190620009d1565b60006040518083038185875af1925050503d806000811462000684576040519150601f19603f3d011682016040523d82523d6000602084013e62000689565b606091505b5090925090506200069d87838387620006a8565b979650505050505050565b606083156200071957825162000711576001600160a01b0385163b620007115760405162461bcd60e51b815260206004820152601d60248201527f416464726573733a2063616c6c20746f206e6f6e2d636f6e7472616374000000604482015260640162000467565b5081620005bc565b620005bc8383815115620007305781518083602001fd5b8060405162461bcd60e51b8152600401620004679190620009ef565b80516001600160a01b03811681146200076457600080fd5b919050565b600080600080608085870312156200078057600080fd5b6200078b856200074c565b93506200079b602086016200074c565b9250620007ab604086016200074c565b9150620007bb606086016200074c565b905092959194509250565b600060208284031215620007d957600080fd5b815160ff81168114620007eb57600080fd5b9392505050565b634e487b7160e01b600052601160045260246000fd5b600060ff821660ff841680821015620008255762000825620007f2565b90039392505050565b600181815b808511156200086f578160001904821115620008535762000853620007f2565b808516156200086157918102915b93841c939080029062000833565b509250929050565b600082620008885750600162000927565b81620008975750600062000927565b8160018114620008b05760028114620008bb57620008db565b600191505062000927565b60ff841115620008cf57620008cf620007f2565b50506001821b62000927565b5060208310610133831016604e8410600b841016171562000900575081810a62000927565b6200090c83836200082e565b8060001904821115620009235762000923620007f2565b0290505b92915050565b6000620007eb60ff84168362000877565b60008160001904831182151516156200095b576200095b620007f2565b500290565b6000602082840312156200097357600080fd5b5051919050565b6000602082840312156200098d57600080fd5b81518015158114620007eb57600080fd5b60005b83811015620009bb578181015183820152602001620009a1565b83811115620009cb576000848401525b50505050565b60008251620009e58184602087016200099e565b9190910192915050565b602081526000825180602084015262000a108160408501602087016200099e565b601f01601f19169190910160400192915050565b6119358062000a346000396000f3fe608060405234801561001057600080fd5b50600436106102275760003560e01c80638456cb5911610130578063c7a66c67116100b8578063f2fde38b1161007c578063f2fde38b14610400578063f4e0d9ac14610413578063fad4675e14610426578063fbfa77cf14610439578063fc0c546a1461044c57600080fd5b8063c7a66c67146103cb578063d0e30db0146103d4578063d7b4be24146103dc578063e7a7250a146103ef578063f1a392da146103f757600080fd5b80639f8b5da1116100ff5780639f8b5da114610392578063ba0e930a1461039f578063bd28f351146103b2578063c1a3d44c146103bb578063c7287e9d146103c357600080fd5b80638456cb59146103595780638912cb8b146103615780638da5cb5b1461036e5780639ec5a8941461037f57600080fd5b80634641257d116101b3578063573fef0a11610182578063573fef0a1461030b5780635c975abb146103135780636ec232d314610331578063715018a614610349578063722713f71461035157600080fd5b80634641257d146102e25780634700d305146102ea578063481c6a75146102f25780634b270a461461030357600080fd5b80631f1fcd51116101fa5780631f1fcd511461029a5780632e1a7d4d146102ab5780633f4ba83a146102be578063410dbf7e146102c6578063436a88c1146102d957600080fd5b80630e8fbb5a1461022c578063115880861461024157806316f0115b1461025c5780631c75b6b214610287575b600080fd5b61023f61023a366004611762565b61045f565b005b61024961047a565b6040519081526020015b60405180910390f35b60055461026f906001600160a01b031681565b6040516001600160a01b039091168152602001610253565b61023f610295366004611786565b610501565b6004546001600160a01b031661026f565b61023f6102b9366004611786565b610560565b61023f61056c565b61023f6102d4366004611786565b61058e565b610249600b5481565b61023f6105e8565b61023f6106d2565b6001546001600160a01b031661026f565b600c54610249565b61023f6107b7565b600154600160a01b900460ff165b6040519015158152602001610253565b60035461026f9061010090046001600160a01b031681565b61023f610805565b610249610817565b61023f610838565b600f546103219060ff1681565b6000546001600160a01b031661026f565b60075461026f906001600160a01b031681565b6003546103219060ff1681565b61023f6103ad36600461179f565b610850565b610249600e5481565b6102496108c8565b600b54610249565b61024960025481565b61023f61093a565b60085461026f906001600160a01b031681565b610249610a70565b61024960105481565b61023f61040e36600461179f565b610aba565b61023f61042136600461179f565b610b30565b61023f610434366004611762565b610b5a565b60065461026f906001600160a01b031681565b60045461026f906001600160a01b031681565b610467610cd9565b600f805460ff1916911515919091179055565b600554604051633b5a0d4160e21b815230600482015260009182916001600160a01b039091169063ed68350490602401602060405180830381865afa1580156104c7573d6000803e3d6000fd5b505050506040513d601f19601f820116820180604052508101906104eb91906117c8565b9050600a54816104fb91906117f7565b91505090565b610509610cd9565b600d54600c546105199083611819565b111561055b5760405162461bcd60e51b815260206004820152600c60248201526b0cccaca40e8dede40d0d2ced60a31b60448201526064015b60405180910390fd5b600b55565b61056981610d5f565b50565b610574610cd9565b61057c610f6f565b610584610fc4565b61058c61093a565b565b610596610cd9565b600d54600b546105a69083611819565b11156105e35760405162461bcd60e51b815260206004820152600c60248201526b0cccaca40e8dede40d0d2ced60a31b6044820152606401610552565b600c55565b60035460ff16801561060a575060035461010090046001600160a01b03163b15155b156106ca57600360019054906101000a90046001600160a01b03166001600160a01b0316633de39c116040518163ffffffff1660e01b81526004016020604051808303816000875af1158015610664573d6000803e3d6000fd5b505050506040513d601f19601f8201168201806040525081019061068891906117c8565b3a11156106ca5760405162461bcd60e51b815260206004820152601060248201526f67617320697320746f6f20686967682160801b6044820152606401610552565b61058c610fe3565b6106da611132565b6106e2610838565b600760009054906101000a90046001600160a01b03166001600160a01b03166354c5aee16040518163ffffffff1660e01b8152600401600060405180830381600087803b15801561073257600080fd5b505af1158015610746573d6000803e3d6000fd5b50506005546001600160a01b03169150632e1a7d4d905061076561047a565b6040518263ffffffff1660e01b815260040161078391815260200190565b600060405180830381600087803b15801561079d57600080fd5b505af11580156107b1573d6000803e3d6000fd5b50505050565b600f5460ff161561058c576006546001600160a01b031633146106ca5760405162461bcd60e51b8152602060048201526006602482015265085d985d5b1d60d21b6044820152606401610552565b61080d611132565b61058c600061118c565b600061082161047a565b6108296108c8565b6108339190611819565b905090565b610840610cd9565b6108486111dc565b61058c611223565b610858611132565b6001600160a01b0381166108bf5760405162461bcd60e51b815260206004820152602860248201527f4f776e61626c653a206e6577206d616e6167657220697320746865207a65726f604482015267206164647265737360c01b6064820152608401610552565b61056981611241565b600480546040516370a0823160e01b815230928101929092526000916001600160a01b03909116906370a0823190602401602060405180830381865afa158015610916573d6000803e3d6000fd5b505050506040513d601f19601f8201168201806040525081019061083391906117c8565b610942611293565b600480546040516370a0823160e01b815230928101929092526000916001600160a01b03909116906370a0823190602401602060405180830381865afa158015610990573d6000803e3d6000fd5b505050506040513d601f19601f820116820180604052508101906109b491906117c8565b9050801561056957600554600a546001600160a01b039091169063b6b55f25906109de9084611831565b6040518263ffffffff1660e01b81526004016109fc91815260200190565b600060405180830381600087803b158015610a1657600080fd5b505af1158015610a2a573d6000803e3d6000fd5b505042600e55507f4d6ce1e535dbade1c23defba91e23b8f791ce5edc0cc320257a2b364e4e384269050610a5c610817565b60405190815260200160405180910390a150565b600754604080516338359faf60e11b815290516000926001600160a01b03169163706b3f5e9160048083019260209291908290030181865afa158015610916573d6000803e3d6000fd5b610ac2611132565b6001600160a01b038116610b275760405162461bcd60e51b815260206004820152602660248201527f4f776e61626c653a206e6577206f776e657220697320746865207a65726f206160448201526564647265737360d01b6064820152608401610552565b6105698161118c565b610b38611132565b600880546001600160a01b0319166001600160a01b0392909216919091179055565b610b62611132565b6003805460ff1916911515919091179055565b801580610bef5750604051636eb1769f60e11b81523060048201526001600160a01b03838116602483015284169063dd62ed3e90604401602060405180830381865afa158015610bc9573d6000803e3d6000fd5b505050506040513d601f19601f82011682018060405250810190610bed91906117c8565b155b610c5a5760405162461bcd60e51b815260206004820152603660248201527f5361666545524332303a20617070726f76652066726f6d206e6f6e2d7a65726f60448201527520746f206e6f6e2d7a65726f20616c6c6f77616e636560501b6064820152608401610552565b6040516001600160a01b038316602482015260448101829052610cbd90849063095ea7b360e01b906064015b60408051601f198184030181529190526020810180516001600160e01b03166001600160e01b0319909316929092179091526112e0565b505050565b6060610cd184846000856113b2565b949350505050565b6000546001600160a01b0316331480610cfc57506001546001600160a01b031633145b61058c5760405162461bcd60e51b815260206004820152602e60248201527f4d616e61676561626c653a2063616c6c6572206973206e6f7420746865206d6160448201526d3730b3b2b91037b91037bbb732b960911b6064820152608401610552565b6006546001600160a01b03163314610da25760405162461bcd60e51b8152602060048201526006602482015265085d985d5b1d60d21b6044820152606401610552565b600480546040516370a0823160e01b815230928101929092526000916001600160a01b03909116906370a0823190602401602060405180830381865afa158015610df0573d6000803e3d6000fd5b505050506040513d601f19601f82011682018060405250810190610e1491906117c8565b905081811015610f0857600a54600090610e2e8385611850565b610e389190611831565b600554604051632e1a7d4d60e01b8152600481018390529192506001600160a01b031690632e1a7d4d90602401600060405180830381600087803b158015610e7f57600080fd5b505af1158015610e93573d6000803e3d6000fd5b5050600480546040516370a0823160e01b815230928101929092526001600160a01b031692506370a082319150602401602060405180830381865afa158015610ee0573d6000803e3d6000fd5b505050506040513d601f19601f82011682018060405250810190610f0491906117c8565b9150505b81811115610f135750805b600654600454610f30916001600160a01b0391821691168361148d565b7f5b6b431d4476a211bb7d41c20d1aab9ae2321deee0d20be3d9fc9b1093fa6e3d610f59610817565b6040519081526020015b60405180910390a15050565b610f776114bd565b6001805460ff60a01b191690557f5db9ee0a495bf2e6ff9c91a7834c1ba4fdd244a5e8aa4e537bd38aeae4b073aa335b6040516001600160a01b03909116815260200160405180910390a1565b60055460045461058c916001600160a01b039182169116600019610b75565b610feb611293565b600760009054906101000a90046001600160a01b03166001600160a01b03166354c5aee16040518163ffffffff1660e01b8152600401600060405180830381600087803b15801561103b57600080fd5b505af115801561104f573d6000803e3d6000fd5b5050600480546040516370a0823160e01b81523092810192909252600093506001600160a01b031691506370a0823190602401602060405180830381865afa15801561109f573d6000803e3d6000fd5b505050506040513d601f19601f820116820180604052508101906110c391906117c8565b90508015610569576110d361150d565b60006110dd6108c8565b90506110e761093a565b42601055337f9bc239f1724cacfb88cb1d66a2dc437467699b68a8c90d7b63110cf4b6f9241082611116610817565b6040805192835260208301919091520160405180910390a25050565b6000546001600160a01b0316331461058c5760405162461bcd60e51b815260206004820181905260248201527f4f776e61626c653a2063616c6c6572206973206e6f7420746865206f776e65726044820152606401610552565b600080546001600160a01b038381166001600160a01b0319831681178455604051919092169283917f8be0079c531659141344cd1fd0a4f28419497f9722a3daafe3b4186f6b6457e09190a35050565b6111e4611293565b6001805460ff60a01b1916600160a01b179055426002557f62e78cea01bee320cd4e420270b5ea74000d11b0c9f74754ebdbfc544b05a258610fa73390565b60055460045461058c916001600160a01b0391821691166000610b75565b600180546001600160a01b038381166001600160a01b0319831681179093556040519116919082907f9cb45c728de594dab506a1f1a8554e24c8eeaf983618d5ec5dd7bc6f3c49feee90600090a35050565b600154600160a01b900460ff161561058c5760405162461bcd60e51b815260206004820152601060248201526f14185d5cd8589b194e881c185d5cd95960821b6044820152606401610552565b6000611335826040518060400160405280602081526020017f5361666545524332303a206c6f772d6c6576656c2063616c6c206661696c6564815250856001600160a01b0316610cc29092919063ffffffff16565b805190915015610cbd57808060200190518101906113539190611867565b610cbd5760405162461bcd60e51b815260206004820152602a60248201527f5361666545524332303a204552433230206f7065726174696f6e20646964206e6044820152691bdd081cdd58d8d9595960b21b6064820152608401610552565b6060824710156114135760405162461bcd60e51b815260206004820152602660248201527f416464726573733a20696e73756666696369656e742062616c616e636520666f6044820152651c8818d85b1b60d21b6064820152608401610552565b600080866001600160a01b0316858760405161142f91906118b0565b60006040518083038185875af1925050503d806000811461146c576040519150601f19603f3d011682016040523d82523d6000602084013e611471565b606091505b5091509150611482878383876116b9565b979650505050505050565b6040516001600160a01b038316602482015260448101829052610cbd90849063a9059cbb60e01b90606401610c86565b600154600160a01b900460ff1661058c5760405162461bcd60e51b815260206004820152601460248201527314185d5cd8589b194e881b9bdd081c185d5cd95960621b6044820152606401610552565b600954600b54600480546040516370a0823160e01b8152309281019290925260009392916001600160a01b03909116906370a0823190602401602060405180830381865afa158015611563573d6000803e3d6000fd5b505050506040513d601f19601f8201168201806040525081019061158791906117c8565b6115919190611831565b61159b91906117f7565b600954600c54600480546040516370a0823160e01b815230928101929092529394506000936001600160a01b0316906370a0823190602401602060405180830381865afa1580156115f0573d6000803e3d6000fd5b505050506040513d601f19601f8201168201806040525081019061161491906117c8565b61161e9190611831565b61162891906117f7565b905061165261163f6000546001600160a01b031690565b6004546001600160a01b0316908461148d565b801561167557600854600454611675916001600160a01b0391821691168361148d565b600b547f7b28cbe16017943a65fcc059a53072c1b23b17da20571041d0555074ec88c434906116a48385611819565b60408051928352602083019190915201610f63565b6060831561172557825161171e576001600160a01b0385163b61171e5760405162461bcd60e51b815260206004820152601d60248201527f416464726573733a2063616c6c20746f206e6f6e2d636f6e74726163740000006044820152606401610552565b5081610cd1565b610cd1838381511561173a5781518083602001fd5b8060405162461bcd60e51b815260040161055291906118cc565b801515811461056957600080fd5b60006020828403121561177457600080fd5b813561177f81611754565b9392505050565b60006020828403121561179857600080fd5b5035919050565b6000602082840312156117b157600080fd5b81356001600160a01b038116811461177f57600080fd5b6000602082840312156117da57600080fd5b5051919050565b634e487b7160e01b600052601160045260246000fd5b60008261181457634e487b7160e01b600052601260045260246000fd5b500490565b6000821982111561182c5761182c6117e1565b500190565b600081600019048311821515161561184b5761184b6117e1565b500290565b600082821015611862576118626117e1565b500390565b60006020828403121561187957600080fd5b815161177f81611754565b60005b8381101561189f578181015183820152602001611887565b838111156107b15750506000910152565b600082516118c2818460208701611884565b9190910192915050565b60208152600082518060208401526118eb816040850160208701611884565b601f01601f1916919091016040019291505056fea2646970667358221220af608918632ac43256d4991265fbc3b600f94a753b13c41202aa0cb79e1a93cd64736f6c634300080c0033",
  "linkReferences": {},
  "deployedLinkReferences": {}
}