{
  "_format": "hh-sol-artifact-1",
  "contractName": "CapSingleStakeStrategy",
  "sourceName": "contracts/strategies/Cap/CapUsdcPoolStrategy.sol",
  "abi": [
    {
      "inputs": [
        {
          "internalType": "address",
          "name": "_vault",
          "type": "address"
        },
        {
          "internalType": "address",
          "name": "_pool",
          "type": "address"
        },
        {
          "internalType": "address",
          "name": "_rewards",
          "type": "address"
        },
        {
          "internalType": "address",
          "name": "_token",
          "type": "address"
        }
      ],
      "stateMutability": "nonpayable",
      "type": "constructor"
    },
    {
      "anonymous": false,
      "inputs": [
        {
          "indexed": false,
          "internalType": "uint256",
          "name": "fees",
          "type": "uint256"
        },
        {
          "indexed": false,
          "internalType": "uint256",
          "name": "amount",
          "type": "uint256"
        }
      ],
      "name": "ChargedFees",
      "type": "event"
    },
    {
      "anonymous": false,
      "inputs": [
        {
          "indexed": false,
          "internalType": "uint256",
          "name": "tvl",
          "type": "uint256"
        }
      ],
      "name": "Deposit",
      "type": "event"
    },
    {
      "anonymous": false,
      "inputs": [
        {
          "indexed": true,
          "internalType": "address",
          "name": "previousOwner",
          "type": "address"
        },
        {
          "indexed": true,
          "internalType": "address",
          "name": "newOwner",
          "type": "address"
        }
      ],
      "name": "OwnershipTransferred",
      "type": "event"
    },
    {
      "anonymous": false,
      "inputs": [
        {
          "indexed": false,
          "internalType": "address",
          "name": "account",
          "type": "address"
        }
      ],
      "name": "Paused",
      "type": "event"
    },
    {
      "anonymous": false,
      "inputs": [
        {
          "indexed": true,
          "internalType": "address",
          "name": "harvester",
          "type": "address"
        },
        {
          "indexed": false,
          "internalType": "uint256",
          "name": "wantTokenHarvested",
          "type": "uint256"
        },
        {
          "indexed": false,
          "internalType": "uint256",
          "name": "tvl",
          "type": "uint256"
        }
      ],
      "name": "StratHarvest",
      "type": "event"
    },
    {
      "anonymous": false,
      "inputs": [
        {
          "indexed": false,
          "internalType": "address",
          "name": "account",
          "type": "address"
        }
      ],
      "name": "Unpaused",
      "type": "event"
    },
    {
      "anonymous": false,
      "inputs": [
        {
          "indexed": false,
          "internalType": "uint256",
          "name": "tvl",
          "type": "uint256"
        }
      ],
      "name": "Withdraw",
      "type": "event"
    },
    {
      "inputs": [],
      "name": "DEV_FEE",
      "outputs": [
        {
          "internalType": "uint256",
          "name": "",
          "type": "uint256"
        }
      ],
      "stateMutability": "view",
      "type": "function"
    },
    {
      "inputs": [],
      "name": "balanceOf",
      "outputs": [
        {
          "internalType": "uint256",
          "name": "",
          "type": "uint256"
        }
      ],
      "stateMutability": "view",
      "type": "function"
    },
    {
      "inputs": [],
      "name": "balanceOfPool",
      "outputs": [
        {
          "internalType": "uint256",
          "name": "",
          "type": "uint256"
        }
      ],
      "stateMutability": "view",
      "type": "function"
    },
    {
      "inputs": [],
      "name": "balanceOfWant",
      "outputs": [
        {
          "internalType": "uint256",
          "name": "",
          "type": "uint256"
        }
      ],
      "stateMutability": "view",
      "type": "function"
    },
    {
      "inputs": [],
      "name": "beforeDeposit",
      "outputs": [],
      "stateMutability": "nonpayable",
      "type": "function"
    },
    {
      "inputs": [],
      "name": "deposit",
      "outputs": [],
      "stateMutability": "nonpayable",
      "type": "function"
    },
    {
      "inputs": [],
      "name": "gasprice",
      "outputs": [
        {
          "internalType": "address",
          "name": "",
          "type": "address"
        }
      ],
      "stateMutability": "view",
      "type": "function"
    },
    {
      "inputs": [],
      "name": "getDevFee",
      "outputs": [
        {
          "internalType": "uint256",
          "name": "",
          "type": "uint256"
        }
      ],
      "stateMutability": "view",
      "type": "function"
    },
    {
      "inputs": [],
      "name": "getStakingFee",
      "outputs": [
        {
          "internalType": "uint256",
          "name": "",
          "type": "uint256"
        }
      ],
      "stateMutability": "view",
      "type": "function"
    },
    {
      "inputs": [],
      "name": "harvest",
      "outputs": [],
      "stateMutability": "nonpayable",
      "type": "function"
    },
    {
      "inputs": [],
      "name": "harvestOnDeposit",
      "outputs": [
        {
          "internalType": "bool",
          "name": "",
          "type": "bool"
        }
      ],
      "stateMutability": "view",
      "type": "function"
    },
    {
      "inputs": [],
      "name": "lastHarvest",
      "outputs": [
        {
          "internalType": "uint256",
          "name": "",
          "type": "uint256"
        }
      ],
      "stateMutability": "view",
      "type": "function"
    },
    {
      "inputs": [],
      "name": "owner",
      "outputs": [
        {
          "internalType": "address",
          "name": "",
          "type": "address"
        }
      ],
      "stateMutability": "view",
      "type": "function"
    },
    {
      "inputs": [],
      "name": "panic",
      "outputs": [],
      "stateMutability": "nonpayable",
      "type": "function"
    },
    {
      "inputs": [],
      "name": "pause",
      "outputs": [],
      "stateMutability": "nonpayable",
      "type": "function"
    },
    {
      "inputs": [],
      "name": "paused",
      "outputs": [
        {
          "internalType": "bool",
          "name": "",
          "type": "bool"
        }
      ],
      "stateMutability": "view",
      "type": "function"
    },
    {
      "inputs": [],
      "name": "pool",
      "outputs": [
        {
          "internalType": "address",
          "name": "",
          "type": "address"
        }
      ],
      "stateMutability": "view",
      "type": "function"
    },
    {
      "inputs": [],
      "name": "protocolStakingAddress",
      "outputs": [
        {
          "internalType": "address",
          "name": "",
          "type": "address"
        }
      ],
      "stateMutability": "view",
      "type": "function"
    },
    {
      "inputs": [],
      "name": "renounceOwnership",
      "outputs": [],
      "stateMutability": "nonpayable",
      "type": "function"
    },
    {
      "inputs": [],
      "name": "retireStrat",
      "outputs": [],
      "stateMutability": "nonpayable",
      "type": "function"
    },
    {
      "inputs": [],
      "name": "rewards",
      "outputs": [
        {
          "internalType": "address",
          "name": "",
          "type": "address"
        }
      ],
      "stateMutability": "view",
      "type": "function"
    },
    {
      "inputs": [],
      "name": "rewardsAvailable",
      "outputs": [
        {
          "internalType": "uint256",
          "name": "",
          "type": "uint256"
        }
      ],
      "stateMutability": "view",
      "type": "function"
    },
    {
      "inputs": [
        {
          "internalType": "uint256",
          "name": "fee",
          "type": "uint256"
        }
      ],
      "name": "setDevFee",
      "outputs": [],
      "stateMutability": "nonpayable",
      "type": "function"
    },
    {
      "inputs": [
        {
          "internalType": "bool",
          "name": "_harvestOnDeposit",
          "type": "bool"
        }
      ],
      "name": "setHarvestOnDeposit",
      "outputs": [],
      "stateMutability": "nonpayable",
      "type": "function"
    },
    {
      "inputs": [
        {
          "internalType": "address",
          "name": "_protocolStakingAddress",
          "type": "address"
        }
      ],
      "name": "setProtocolStakingAddress",
      "outputs": [],
      "stateMutability": "nonpayable",
      "type": "function"
    },
    {
      "inputs": [
        {
          "internalType": "bool",
          "name": "_shouldGasThrottle",
          "type": "bool"
        }
      ],
      "name": "setShouldGasThrottle",
      "outputs": [],
      "stateMutability": "nonpayable",
      "type": "function"
    },
    {
      "inputs": [
        {
          "internalType": "uint256",
          "name": "fee",
          "type": "uint256"
        }
      ],
      "name": "setStakingFee",
      "outputs": [],
      "stateMutability": "nonpayable",
      "type": "function"
    },
    {
      "inputs": [],
      "name": "shouldGasThrottle",
      "outputs": [
        {
          "internalType": "bool",
          "name": "",
          "type": "bool"
        }
      ],
      "stateMutability": "view",
      "type": "function"
    },
    {
      "inputs": [],
      "name": "token",
      "outputs": [
        {
          "internalType": "address",
          "name": "",
          "type": "address"
        }
      ],
      "stateMutability": "view",
      "type": "function"
    },
    {
      "inputs": [
        {
          "internalType": "address",
          "name": "newOwner",
          "type": "address"
        }
      ],
      "name": "transferOwnership",
      "outputs": [],
      "stateMutability": "nonpayable",
      "type": "function"
    },
    {
      "inputs": [],
      "name": "unpause",
      "outputs": [],
      "stateMutability": "nonpayable",
      "type": "function"
    },
    {
      "inputs": [],
      "name": "vault",
      "outputs": [
        {
          "internalType": "address",
          "name": "",
          "type": "address"
        }
      ],
      "stateMutability": "view",
      "type": "function"
    },
    {
      "inputs": [],
      "name": "want",
      "outputs": [
        {
          "internalType": "address",
          "name": "",
          "type": "address"
        }
      ],
      "stateMutability": "view",
      "type": "function"
    },
    {
      "inputs": [
        {
          "internalType": "uint256",
          "name": "_amount",
          "type": "uint256"
        }
      ],
      "name": "withdraw",
      "outputs": [],
      "stateMutability": "nonpayable",
      "type": "function"
    }
  ],
  "bytecode": "0x60806040526000805460ff60a81b1916600160a81b178155600180546001600160a01b03191673a43509661141f254f54d9a326e8ec851a0b9530717905560095564e8d4a51000600a553480156200005657600080fd5b506040516200220d3803806200220d833981016040819052620000799162000679565b62000084336200020b565b6000805460ff60a01b19169055600480546001600160a01b038087166001600160a01b03199283161790925560038054868416908316179055600580548584169083161790556002805492841692909116919091179055620000e56200025b565b6002546040805163313ce56760e01b815290516001926001600160a01b03169163313ce5679160048083019260209291908290030181865afa15801562000130573d6000803e3d6000fd5b505050506040513d601f19601f82011682018060405250810190620001569190620006d6565b62000162919062000718565b6200016f90600a6200083d565b6200017c9060036200084e565b6008556002546040805163313ce56760e01b815290516001600160a01b039092169163313ce567916004808201926020929091908290030181865afa158015620001ca573d6000803e3d6000fd5b505050506040513d601f19601f82011682018060405250810190620001f09190620006d6565b620001fd90600a6200083d565b600755506200093492505050565b600080546001600160a01b038381166001600160a01b0319831681178455604051919092169283917f8be0079c531659141344cd1fd0a4f28419497f9722a3daafe3b4186f6b6457e09190a35050565b60035460025462000288916001600160a01b0391821691166000196200028a602090811b62000bf017901c565b565b801580620003085750604051636eb1769f60e11b81523060048201526001600160a01b03838116602483015284169063dd62ed3e90604401602060405180830381865afa158015620002e0573d6000803e3d6000fd5b505050506040513d601f19601f8201168201806040525081019062000306919062000870565b155b620003805760405162461bcd60e51b815260206004820152603660248201527f5361666545524332303a20617070726f76652066726f6d206e6f6e2d7a65726f60448201527f20746f206e6f6e2d7a65726f20616c6c6f77616e63650000000000000000000060648201526084015b60405180910390fd5b604080516001600160a01b038416602482015260448082018490528251808303909101815260649091019091526020810180516001600160e01b0390811663095ea7b360e01b17909152620003d8918591620003dd16565b505050565b600062000439826040518060400160405280602081526020017f5361666545524332303a206c6f772d6c6576656c2063616c6c206661696c6564815250856001600160a01b0316620004bb60201b62000d38179092919060201c565b805190915015620003d857808060200190518101906200045a91906200088a565b620003d85760405162461bcd60e51b815260206004820152602a60248201527f5361666545524332303a204552433230206f7065726174696f6e20646964206e6044820152691bdd081cdd58d8d9595960b21b606482015260840162000377565b6060620004cc8484600085620004d4565b949350505050565b606082471015620005375760405162461bcd60e51b815260206004820152602660248201527f416464726573733a20696e73756666696369656e742062616c616e636520666f6044820152651c8818d85b1b60d21b606482015260840162000377565b600080866001600160a01b03168587604051620005559190620008e1565b60006040518083038185875af1925050503d806000811462000594576040519150601f19603f3d011682016040523d82523d6000602084013e62000599565b606091505b509092509050620005ad87838387620005b8565b979650505050505050565b606083156200062957825162000621576001600160a01b0385163b620006215760405162461bcd60e51b815260206004820152601d60248201527f416464726573733a2063616c6c20746f206e6f6e2d636f6e7472616374000000604482015260640162000377565b5081620004cc565b620004cc8383815115620006405781518083602001fd5b8060405162461bcd60e51b8152600401620003779190620008ff565b80516001600160a01b03811681146200067457600080fd5b919050565b600080600080608085870312156200069057600080fd5b6200069b856200065c565b9350620006ab602086016200065c565b9250620006bb604086016200065c565b9150620006cb606086016200065c565b905092959194509250565b600060208284031215620006e957600080fd5b815160ff81168114620006fb57600080fd5b9392505050565b634e487b7160e01b600052601160045260246000fd5b600060ff821660ff84168082101562000735576200073562000702565b90039392505050565b600181815b808511156200077f57816000190482111562000763576200076362000702565b808516156200077157918102915b93841c939080029062000743565b509250929050565b600082620007985750600162000837565b81620007a75750600062000837565b8160018114620007c05760028114620007cb57620007eb565b600191505062000837565b60ff841115620007df57620007df62000702565b50506001821b62000837565b5060208310610133831016604e8410600b841016171562000810575081810a62000837565b6200081c83836200073e565b806000190482111562000833576200083362000702565b0290505b92915050565b6000620006fb60ff84168362000787565b60008160001904831182151516156200086b576200086b62000702565b500290565b6000602082840312156200088357600080fd5b5051919050565b6000602082840312156200089d57600080fd5b81518015158114620006fb57600080fd5b60005b83811015620008cb578181015183820152602001620008b1565b83811115620008db576000848401525b50505050565b60008251620008f5818460208701620008ae565b9190910192915050565b602081526000825180602084015262000920816040850160208701620008ae565b601f01601f19169190910160400192915050565b6118c980620009446000396000f3fe608060405234801561001057600080fd5b50600436106102065760003560e01c806380c692a11161011a578063c7287e9d116100ad578063f2fde38b1161007c578063f2fde38b146103be578063fad4675e146103d1578063fb617787146103e4578063fbfa77cf146103ec578063fc0c546a146103ff57600080fd5b8063c7287e9d1461039d578063d0e30db0146103a5578063e7a7250a146103ad578063f1a392da146103b557600080fd5b8063931d49a1116100e9578063931d49a11461035b5780639ec5a8941461036e5780639f8b5da114610381578063c1a3d44c1461039557600080fd5b806380c692a1146103225780638456cb59146103355780638912cb8b1461033d5780638da5cb5b1461034a57600080fd5b8063436a88c11161019d578063573fef0a1161016c578063573fef0a146102d95780635c975abb146102e15780636ec232d3146102ff578063715018a614610312578063722713f71461031a57600080fd5b8063436a88c1146102b85780634641257d146102c15780634700d305146102c95780634b270a46146102d157600080fd5b80631f1fcd51116101d95780631f1fcd51146102795780632e1a7d4d1461028a5780633f4ba83a1461029d578063410dbf7e146102a557600080fd5b80630e8fbb5a1461020b578063115880861461022057806316f0115b1461023b5780631c75b6b214610266575b600080fd5b61021e6102193660046116d6565b610412565b005b61022861042d565b6040519081526020015b60405180910390f35b60035461024e906001600160a01b031681565b6040516001600160a01b039091168152602001610232565b61021e6102743660046116fa565b6104b4565b6002546001600160a01b031661024e565b61021e6102983660046116fa565b61051a565b61021e610526565b61021e6102b33660046116fa565b610548565b61022860085481565b61021e6105a9565b61021e610695565b600954610228565b61021e61077a565b600054600160a01b900460ff165b6040519015158152602001610232565b60015461024e906001600160a01b031681565b61021e6107af565b6102286107c1565b61021e610330366004611713565b6107e2565b61021e61080c565b600b546102ef9060ff1681565b6000546001600160a01b031661024e565b60065461024e906001600160a01b031681565b60055461024e906001600160a01b031681565b6000546102ef90600160a81b900460ff1681565b610228610824565b600854610228565b61021e610891565b6102286109bd565b610228600c5481565b61021e6103cc366004611713565b610a07565b61021e6103df3660046116d6565b610a7d565b61021e610aa3565b60045461024e906001600160a01b031681565b60025461024e906001600160a01b031681565b61041a610d4f565b600b805460ff1916911515919091179055565b600354604051633b5a0d4160e21b815230600482015260009182916001600160a01b039091169063ed68350490602401602060405180830381865afa15801561047a573d6000803e3d6000fd5b505050506040513d601f19601f8201168201806040525081019061049e919061173c565b9050600a54816104ae919061176b565b91505090565b6104bc610d4f565b6706f05b59d3b20000600954826104d3919061178d565b11156105155760405162461bcd60e51b815260206004820152600c60248201526b0cccaca40e8dede40d0d2ced60a31b60448201526064015b60405180910390fd5b600855565b61052381610da9565b50565b61052e610d4f565b610536610f9a565b61053e610fef565b610546610891565b565b610550610d4f565b6706f05b59d3b2000060085482610567919061178d565b11156105a45760405162461bcd60e51b815260206004820152600c60248201526b0cccaca40e8dede40d0d2ced60a31b604482015260640161050c565b600955565b600054600160a81b900460ff1680156105cd57506001546001600160a01b03163b15155b1561068d57600160009054906101000a90046001600160a01b03166001600160a01b0316633de39c116040518163ffffffff1660e01b81526004016020604051808303816000875af1158015610627573d6000803e3d6000fd5b505050506040513d601f19601f8201168201806040525081019061064b919061173c565b3a111561068d5760405162461bcd60e51b815260206004820152601060248201526f67617320697320746f6f20686967682160801b604482015260640161050c565b61054661100e565b61069d610d4f565b6106a561080c565b600560009054906101000a90046001600160a01b03166001600160a01b03166354c5aee16040518163ffffffff1660e01b8152600401600060405180830381600087803b1580156106f557600080fd5b505af1158015610709573d6000803e3d6000fd5b50506003546001600160a01b03169150632e1a7d4d905061072861042d565b6040518263ffffffff1660e01b815260040161074691815260200190565b600060405180830381600087803b15801561076057600080fd5b505af1158015610774573d6000803e3d6000fd5b50505050565b600b5460ff1615610546576004546001600160a01b0316331461068d5760405162461bcd60e51b815260040161050c906117a5565b6107b7610d4f565b610546600061115c565b60006107cb61042d565b6107d3610824565b6107dd919061178d565b905090565b6107ea610d4f565b600680546001600160a01b0319166001600160a01b0392909216919091179055565b610814610d4f565b61081c6111ac565b6105466111ef565b6002546040516370a0823160e01b81523060048201526000916001600160a01b0316906370a0823190602401602060405180830381865afa15801561086d573d6000803e3d6000fd5b505050506040513d601f19601f820116820180604052508101906107dd919061173c565b61089961120d565b6002546040516370a0823160e01b81523060048201526000916001600160a01b0316906370a0823190602401602060405180830381865afa1580156108e2573d6000803e3d6000fd5b505050506040513d601f19601f82011682018060405250810190610906919061173c565b9050801561052357600354600a546001600160a01b039091169063b6b55f259061093090846117c5565b6040518263ffffffff1660e01b815260040161094e91815260200190565b600060405180830381600087803b15801561096857600080fd5b505af115801561097c573d6000803e3d6000fd5b505050507f4d6ce1e535dbade1c23defba91e23b8f791ce5edc0cc320257a2b364e4e384266109a96107c1565b60405190815260200160405180910390a150565b600554604080516338359faf60e11b815290516000926001600160a01b03169163706b3f5e9160048083019260209291908290030181865afa15801561086d573d6000803e3d6000fd5b610a0f610d4f565b6001600160a01b038116610a745760405162461bcd60e51b815260206004820152602660248201527f4f776e61626c653a206e6577206f776e657220697320746865207a65726f206160448201526564647265737360d01b606482015260840161050c565b6105238161115c565b610a85610d4f565b60008054911515600160a81b0260ff60a81b19909216919091179055565b6004546001600160a01b03163314610acd5760405162461bcd60e51b815260040161050c906117a5565b610ad561100e565b6002546040516370a0823160e01b81523060048201526000916001600160a01b0316906370a0823190602401602060405180830381865afa158015610b1e573d6000803e3d6000fd5b505050506040513d601f19601f82011682018060405250810190610b42919061173c565b90506000610b4e61042d565b9050610b5981610da9565b6002546004546001600160a01b039182169163a9059cbb9116610b7c848661178d565b6040516001600160e01b031960e085901b1681526001600160a01b03909216600483015260248201526044016020604051808303816000875af1158015610bc7573d6000803e3d6000fd5b505050506040513d601f19601f82011682018060405250810190610beb91906117e4565b505050565b801580610c6a5750604051636eb1769f60e11b81523060048201526001600160a01b03838116602483015284169063dd62ed3e90604401602060405180830381865afa158015610c44573d6000803e3d6000fd5b505050506040513d601f19601f82011682018060405250810190610c68919061173c565b155b610cd55760405162461bcd60e51b815260206004820152603660248201527f5361666545524332303a20617070726f76652066726f6d206e6f6e2d7a65726f60448201527520746f206e6f6e2d7a65726f20616c6c6f77616e636560501b606482015260840161050c565b6040516001600160a01b038316602482015260448101829052610beb90849063095ea7b360e01b906064015b60408051601f198184030181529190526020810180516001600160e01b03166001600160e01b03199093169290921790915261125a565b6060610d47848460008561132c565b949350505050565b6000546001600160a01b031633146105465760405162461bcd60e51b815260206004820181905260248201527f4f776e61626c653a2063616c6c6572206973206e6f7420746865206f776e6572604482015260640161050c565b6004546001600160a01b03163314610dd35760405162461bcd60e51b815260040161050c906117a5565b6002546040516370a0823160e01b81523060048201526000916001600160a01b0316906370a0823190602401602060405180830381865afa158015610e1c573d6000803e3d6000fd5b505050506040513d601f19601f82011682018060405250810190610e40919061173c565b905081811015610f3357600a54600090610e5a8385611801565b610e6491906117c5565b600354604051632e1a7d4d60e01b8152600481018390529192506001600160a01b031690632e1a7d4d90602401600060405180830381600087803b158015610eab57600080fd5b505af1158015610ebf573d6000803e3d6000fd5b50506002546040516370a0823160e01b81523060048201526001600160a01b0390911692506370a082319150602401602060405180830381865afa158015610f0b573d6000803e3d6000fd5b505050506040513d601f19601f82011682018060405250810190610f2f919061173c565b9150505b81811115610f3e5750805b600454600254610f5b916001600160a01b03918216911683611407565b7f5b6b431d4476a211bb7d41c20d1aab9ae2321deee0d20be3d9fc9b1093fa6e3d610f846107c1565b6040519081526020015b60405180910390a15050565b610fa2611437565b6000805460ff60a01b191690557f5db9ee0a495bf2e6ff9c91a7834c1ba4fdd244a5e8aa4e537bd38aeae4b073aa335b6040516001600160a01b03909116815260200160405180910390a1565b600354600254610546916001600160a01b039182169116600019610bf0565b61101661120d565b600560009054906101000a90046001600160a01b03166001600160a01b03166354c5aee16040518163ffffffff1660e01b8152600401600060405180830381600087803b15801561106657600080fd5b505af115801561107a573d6000803e3d6000fd5b50506002546040516370a0823160e01b8152306004820152600093506001600160a01b0390911691506370a0823190602401602060405180830381865afa1580156110c9573d6000803e3d6000fd5b505050506040513d601f19601f820116820180604052508101906110ed919061173c565b90508015610523576110fd611487565b6000611107610824565b9050611111610891565b42600c55337f9bc239f1724cacfb88cb1d66a2dc437467699b68a8c90d7b63110cf4b6f92410826111406107c1565b6040805192835260208301919091520160405180910390a25050565b600080546001600160a01b038381166001600160a01b0319831681178455604051919092169283917f8be0079c531659141344cd1fd0a4f28419497f9722a3daafe3b4186f6b6457e09190a35050565b6111b461120d565b6000805460ff60a01b1916600160a01b1790557f62e78cea01bee320cd4e420270b5ea74000d11b0c9f74754ebdbfc544b05a258610fd23390565b600354600254610546916001600160a01b0391821691166000610bf0565b600054600160a01b900460ff16156105465760405162461bcd60e51b815260206004820152601060248201526f14185d5cd8589b194e881c185d5cd95960821b604482015260640161050c565b60006112af826040518060400160405280602081526020017f5361666545524332303a206c6f772d6c6576656c2063616c6c206661696c6564815250856001600160a01b0316610d389092919063ffffffff16565b805190915015610beb57808060200190518101906112cd91906117e4565b610beb5760405162461bcd60e51b815260206004820152602a60248201527f5361666545524332303a204552433230206f7065726174696f6e20646964206e6044820152691bdd081cdd58d8d9595960b21b606482015260840161050c565b60608247101561138d5760405162461bcd60e51b815260206004820152602660248201527f416464726573733a20696e73756666696369656e742062616c616e636520666f6044820152651c8818d85b1b60d21b606482015260840161050c565b600080866001600160a01b031685876040516113a99190611844565b60006040518083038185875af1925050503d80600081146113e6576040519150601f19603f3d011682016040523d82523d6000602084013e6113eb565b606091505b50915091506113fc8783838761162d565b979650505050505050565b6040516001600160a01b038316602482015260448101829052610beb90849063a9059cbb60e01b90606401610d01565b600054600160a01b900460ff166105465760405162461bcd60e51b815260206004820152601460248201527314185d5cd8589b194e881b9bdd081c185d5cd95960621b604482015260640161050c565b6007546008546002546040516370a0823160e01b815230600482015260009392916001600160a01b0316906370a0823190602401602060405180830381865afa1580156114d8573d6000803e3d6000fd5b505050506040513d601f19601f820116820180604052508101906114fc919061173c565b61150691906117c5565b611510919061176b565b6007546009546002546040516370a0823160e01b81523060048201529394506000936001600160a01b03909116906370a0823190602401602060405180830381865afa158015611564573d6000803e3d6000fd5b505050506040513d601f19601f82011682018060405250810190611588919061173c565b61159291906117c5565b61159c919061176b565b90506115c66115b36000546001600160a01b031690565b6002546001600160a01b03169084611407565b80156115e9576006546002546115e9916001600160a01b03918216911683611407565b6008547f7b28cbe16017943a65fcc059a53072c1b23b17da20571041d0555074ec88c43490611618838561178d565b60408051928352602083019190915201610f8e565b60608315611699578251611692576001600160a01b0385163b6116925760405162461bcd60e51b815260206004820152601d60248201527f416464726573733a2063616c6c20746f206e6f6e2d636f6e7472616374000000604482015260640161050c565b5081610d47565b610d4783838151156116ae5781518083602001fd5b8060405162461bcd60e51b815260040161050c9190611860565b801515811461052357600080fd5b6000602082840312156116e857600080fd5b81356116f3816116c8565b9392505050565b60006020828403121561170c57600080fd5b5035919050565b60006020828403121561172557600080fd5b81356001600160a01b03811681146116f357600080fd5b60006020828403121561174e57600080fd5b5051919050565b634e487b7160e01b600052601160045260246000fd5b60008261178857634e487b7160e01b600052601260045260246000fd5b500490565b600082198211156117a0576117a0611755565b500190565b602080825260069082015265085d985d5b1d60d21b604082015260600190565b60008160001904831182151516156117df576117df611755565b500290565b6000602082840312156117f657600080fd5b81516116f3816116c8565b60008282101561181357611813611755565b500390565b60005b8381101561183357818101518382015260200161181b565b838111156107745750506000910152565b60008251611856818460208701611818565b9190910192915050565b602081526000825180602084015261187f816040850160208701611818565b601f01601f1916919091016040019291505056fea264697066735822122062fecd98e71058066a6c2eca4ae8bdaa5db74d66f1bfc95196e4abe18f4e3cd864736f6c634300080c0033",
  "linkReferences": {},
  "deployedLinkReferences": {}
}