{
  "_format": "hh-sol-artifact-1",
  "contractName": "CapUsdcPoolStrategy",
  "sourceName": "contracts/strategies/Cap/CapUsdcPoolStrategy.sol",
  "abi": [
    {
      "inputs": [
        {
          "internalType": "address",
          "name": "_vault",
          "type": "address"
        },
        {
          "internalType": "address",
          "name": "_pool",
          "type": "address"
        },
        {
          "internalType": "address",
          "name": "_rewards",
          "type": "address"
        },
        {
          "internalType": "address",
          "name": "_token",
          "type": "address"
        }
      ],
      "stateMutability": "nonpayable",
      "type": "constructor"
    },
    {
      "anonymous": false,
      "inputs": [
        {
          "indexed": false,
          "internalType": "uint256",
          "name": "fees",
          "type": "uint256"
        },
        {
          "indexed": false,
          "internalType": "uint256",
          "name": "amount",
          "type": "uint256"
        }
      ],
      "name": "ChargedFees",
      "type": "event"
    },
    {
      "anonymous": false,
      "inputs": [
        {
          "indexed": false,
          "internalType": "uint256",
          "name": "tvl",
          "type": "uint256"
        }
      ],
      "name": "Deposit",
      "type": "event"
    },
    {
      "anonymous": false,
      "inputs": [
        {
          "indexed": true,
          "internalType": "address",
          "name": "previousManager",
          "type": "address"
        },
        {
          "indexed": true,
          "internalType": "address",
          "name": "newManager",
          "type": "address"
        }
      ],
      "name": "ManagerTransferred",
      "type": "event"
    },
    {
      "anonymous": false,
      "inputs": [
        {
          "indexed": true,
          "internalType": "address",
          "name": "previousOwner",
          "type": "address"
        },
        {
          "indexed": true,
          "internalType": "address",
          "name": "newOwner",
          "type": "address"
        }
      ],
      "name": "OwnershipTransferred",
      "type": "event"
    },
    {
      "anonymous": false,
      "inputs": [
        {
          "indexed": false,
          "internalType": "address",
          "name": "account",
          "type": "address"
        }
      ],
      "name": "Paused",
      "type": "event"
    },
    {
      "anonymous": false,
      "inputs": [
        {
          "indexed": false,
          "internalType": "uint256",
          "name": "totalPending",
          "type": "uint256"
        }
      ],
      "name": "PendingDeposit",
      "type": "event"
    },
    {
      "anonymous": false,
      "inputs": [
        {
          "indexed": false,
          "internalType": "address",
          "name": "account",
          "type": "address"
        }
      ],
      "name": "Resumed",
      "type": "event"
    },
    {
      "anonymous": false,
      "inputs": [
        {
          "indexed": false,
          "internalType": "address",
          "name": "account",
          "type": "address"
        }
      ],
      "name": "Stopped",
      "type": "event"
    },
    {
      "anonymous": false,
      "inputs": [
        {
          "indexed": true,
          "internalType": "address",
          "name": "harvester",
          "type": "address"
        },
        {
          "indexed": false,
          "internalType": "uint256",
          "name": "wantTokenHarvested",
          "type": "uint256"
        },
        {
          "indexed": false,
          "internalType": "uint256",
          "name": "tvl",
          "type": "uint256"
        }
      ],
      "name": "StratHarvest",
      "type": "event"
    },
    {
      "anonymous": false,
      "inputs": [
        {
          "indexed": false,
          "internalType": "address",
          "name": "account",
          "type": "address"
        }
      ],
      "name": "Unpaused",
      "type": "event"
    },
    {
      "anonymous": false,
      "inputs": [
        {
          "indexed": false,
          "internalType": "uint256",
          "name": "tvl",
          "type": "uint256"
        }
      ],
      "name": "Withdraw",
      "type": "event"
    },
    {
      "inputs": [],
      "name": "DEV_FEE",
      "outputs": [
        {
          "internalType": "uint256",
          "name": "",
          "type": "uint256"
        }
      ],
      "stateMutability": "view",
      "type": "function"
    },
    {
      "inputs": [],
      "name": "balanceOf",
      "outputs": [
        {
          "internalType": "uint256",
          "name": "",
          "type": "uint256"
        }
      ],
      "stateMutability": "view",
      "type": "function"
    },
    {
      "inputs": [],
      "name": "balanceOfPool",
      "outputs": [
        {
          "internalType": "uint256",
          "name": "",
          "type": "uint256"
        }
      ],
      "stateMutability": "view",
      "type": "function"
    },
    {
      "inputs": [],
      "name": "balanceOfWant",
      "outputs": [
        {
          "internalType": "uint256",
          "name": "",
          "type": "uint256"
        }
      ],
      "stateMutability": "view",
      "type": "function"
    },
    {
      "inputs": [],
      "name": "beforeDeposit",
      "outputs": [],
      "stateMutability": "nonpayable",
      "type": "function"
    },
    {
      "inputs": [],
      "name": "deposit",
      "outputs": [],
      "stateMutability": "nonpayable",
      "type": "function"
    },
    {
      "inputs": [],
      "name": "gasprice",
      "outputs": [
        {
          "internalType": "address",
          "name": "",
          "type": "address"
        }
      ],
      "stateMutability": "view",
      "type": "function"
    },
    {
      "inputs": [],
      "name": "getDevFee",
      "outputs": [
        {
          "internalType": "uint256",
          "name": "",
          "type": "uint256"
        }
      ],
      "stateMutability": "view",
      "type": "function"
    },
    {
      "inputs": [],
      "name": "getStakingFee",
      "outputs": [
        {
          "internalType": "uint256",
          "name": "",
          "type": "uint256"
        }
      ],
      "stateMutability": "view",
      "type": "function"
    },
    {
      "inputs": [],
      "name": "harvest",
      "outputs": [],
      "stateMutability": "nonpayable",
      "type": "function"
    },
    {
      "inputs": [],
      "name": "harvestOnDeposit",
      "outputs": [
        {
          "internalType": "bool",
          "name": "",
          "type": "bool"
        }
      ],
      "stateMutability": "view",
      "type": "function"
    },
    {
      "inputs": [],
      "name": "lastHarvest",
      "outputs": [
        {
          "internalType": "uint256",
          "name": "",
          "type": "uint256"
        }
      ],
      "stateMutability": "view",
      "type": "function"
    },
    {
      "inputs": [],
      "name": "lastPauseTime",
      "outputs": [
        {
          "internalType": "uint256",
          "name": "",
          "type": "uint256"
        }
      ],
      "stateMutability": "view",
      "type": "function"
    },
    {
      "inputs": [],
      "name": "lastPoolDepositTime",
      "outputs": [
        {
          "internalType": "uint256",
          "name": "",
          "type": "uint256"
        }
      ],
      "stateMutability": "view",
      "type": "function"
    },
    {
      "inputs": [],
      "name": "manager",
      "outputs": [
        {
          "internalType": "address",
          "name": "",
          "type": "address"
        }
      ],
      "stateMutability": "view",
      "type": "function"
    },
    {
      "inputs": [],
      "name": "owner",
      "outputs": [
        {
          "internalType": "address",
          "name": "",
          "type": "address"
        }
      ],
      "stateMutability": "view",
      "type": "function"
    },
    {
      "inputs": [],
      "name": "panic",
      "outputs": [],
      "stateMutability": "nonpayable",
      "type": "function"
    },
    {
      "inputs": [],
      "name": "pause",
      "outputs": [],
      "stateMutability": "nonpayable",
      "type": "function"
    },
    {
      "inputs": [],
      "name": "paused",
      "outputs": [
        {
          "internalType": "bool",
          "name": "",
          "type": "bool"
        }
      ],
      "stateMutability": "view",
      "type": "function"
    },
    {
      "inputs": [],
      "name": "pool",
      "outputs": [
        {
          "internalType": "address",
          "name": "",
          "type": "address"
        }
      ],
      "stateMutability": "view",
      "type": "function"
    },
    {
      "inputs": [],
      "name": "renounceOwnership",
      "outputs": [],
      "stateMutability": "nonpayable",
      "type": "function"
    },
    {
      "inputs": [],
      "name": "resume",
      "outputs": [],
      "stateMutability": "nonpayable",
      "type": "function"
    },
    {
      "inputs": [],
      "name": "rewards",
      "outputs": [
        {
          "internalType": "address",
          "name": "",
          "type": "address"
        }
      ],
      "stateMutability": "view",
      "type": "function"
    },
    {
      "inputs": [],
      "name": "rewardsAvailable",
      "outputs": [
        {
          "internalType": "uint256",
          "name": "",
          "type": "uint256"
        }
      ],
      "stateMutability": "view",
      "type": "function"
    },
    {
      "inputs": [
        {
          "internalType": "uint256",
          "name": "fee",
          "type": "uint256"
        }
      ],
      "name": "setDevFee",
      "outputs": [],
      "stateMutability": "nonpayable",
      "type": "function"
    },
    {
      "inputs": [
        {
          "internalType": "bool",
          "name": "_harvestOnDeposit",
          "type": "bool"
        }
      ],
      "name": "setHarvestOnDeposit",
      "outputs": [],
      "stateMutability": "nonpayable",
      "type": "function"
    },
    {
      "inputs": [
        {
          "internalType": "bool",
          "name": "_shouldGasThrottle",
          "type": "bool"
        }
      ],
      "name": "setShouldGasThrottle",
      "outputs": [],
      "stateMutability": "nonpayable",
      "type": "function"
    },
    {
      "inputs": [
        {
          "internalType": "address",
          "name": "_stakingAddress",
          "type": "address"
        }
      ],
      "name": "setStakingAddress",
      "outputs": [],
      "stateMutability": "nonpayable",
      "type": "function"
    },
    {
      "inputs": [
        {
          "internalType": "uint256",
          "name": "fee",
          "type": "uint256"
        }
      ],
      "name": "setStakingFee",
      "outputs": [],
      "stateMutability": "nonpayable",
      "type": "function"
    },
    {
      "inputs": [],
      "name": "shouldGasThrottle",
      "outputs": [
        {
          "internalType": "bool",
          "name": "",
          "type": "bool"
        }
      ],
      "stateMutability": "view",
      "type": "function"
    },
    {
      "inputs": [],
      "name": "stakingAddress",
      "outputs": [
        {
          "internalType": "address",
          "name": "",
          "type": "address"
        }
      ],
      "stateMutability": "view",
      "type": "function"
    },
    {
      "inputs": [],
      "name": "stop",
      "outputs": [],
      "stateMutability": "nonpayable",
      "type": "function"
    },
    {
      "inputs": [],
      "name": "stopped",
      "outputs": [
        {
          "internalType": "bool",
          "name": "",
          "type": "bool"
        }
      ],
      "stateMutability": "view",
      "type": "function"
    },
    {
      "inputs": [],
      "name": "token",
      "outputs": [
        {
          "internalType": "address",
          "name": "",
          "type": "address"
        }
      ],
      "stateMutability": "view",
      "type": "function"
    },
    {
      "inputs": [
        {
          "internalType": "address",
          "name": "newManager",
          "type": "address"
        }
      ],
      "name": "transferManager",
      "outputs": [],
      "stateMutability": "nonpayable",
      "type": "function"
    },
    {
      "inputs": [
        {
          "internalType": "address",
          "name": "newOwner",
          "type": "address"
        }
      ],
      "name": "transferOwnership",
      "outputs": [],
      "stateMutability": "nonpayable",
      "type": "function"
    },
    {
      "inputs": [],
      "name": "unpause",
      "outputs": [],
      "stateMutability": "nonpayable",
      "type": "function"
    },
    {
      "inputs": [],
      "name": "vault",
      "outputs": [
        {
          "internalType": "address",
          "name": "",
          "type": "address"
        }
      ],
      "stateMutability": "view",
      "type": "function"
    },
    {
      "inputs": [],
      "name": "want",
      "outputs": [
        {
          "internalType": "address",
          "name": "",
          "type": "address"
        }
      ],
      "stateMutability": "view",
      "type": "function"
    },
    {
      "inputs": [
        {
          "internalType": "uint256",
          "name": "_amount",
          "type": "uint256"
        }
      ],
      "name": "withdraw",
      "outputs": [],
      "stateMutability": "nonpayable",
      "type": "function"
    }
  ],
  "bytecode": "0x6080604052600380546001600160a81b03191674a43509661141f254f54d9a326e8ec851a0b953070117905564e8d4a51000600a556000600c553480156200004657600080fd5b506040516200258138038062002581833981016040819052620000699162000776565b6200007433620002b6565b6200007f3362000306565b6001805460ff60a01b191690556003805460ff60a81b19169055600680546001600160a01b038087166001600160a01b03199283161790925560058054868416908316179055600780548584169083161790556004805492841692909116919091179055620000ed62000358565b6002600460009054906101000a90046001600160a01b03166001600160a01b031663313ce5676040518163ffffffff1660e01b8152600401602060405180830381865afa15801562000143573d6000803e3d6000fd5b505050506040513d601f19601f82011682018060405250810190620001699190620007d3565b62000175919062000815565b6200018290600a6200093a565b6200018f9060056200094b565b600b55600480546040805163313ce56760e01b815290516001936001600160a01b039093169263313ce567928082019260209290918290030181865afa158015620001de573d6000803e3d6000fd5b505050506040513d601f19601f82011682018060405250810190620002049190620007d3565b62000210919062000815565b6200021d90600a6200093a565b6200022a9060056200094b565b600d55600480546040805163313ce56760e01b815290516001600160a01b039092169263313ce5679282820192602092908290030181865afa15801562000275573d6000803e3d6000fd5b505050506040513d601f19601f820116820180604052508101906200029b9190620007d3565b620002a890600a6200093a565b6009555062000a3192505050565b600080546001600160a01b038381166001600160a01b0319831681178455604051919092169283917f8be0079c531659141344cd1fd0a4f28419497f9722a3daafe3b4186f6b6457e09190a35050565b600180546001600160a01b038381166001600160a01b0319831681179093556040519116919082907f9cb45c728de594dab506a1f1a8554e24c8eeaf983618d5ec5dd7bc6f3c49feee90600090a35050565b60055460045462000385916001600160a01b03918216911660001962000387602090811b62000c4d17901c565b565b801580620004055750604051636eb1769f60e11b81523060048201526001600160a01b03838116602483015284169063dd62ed3e90604401602060405180830381865afa158015620003dd573d6000803e3d6000fd5b505050506040513d601f19601f820116820180604052508101906200040391906200096d565b155b6200047d5760405162461bcd60e51b815260206004820152603660248201527f5361666545524332303a20617070726f76652066726f6d206e6f6e2d7a65726f60448201527f20746f206e6f6e2d7a65726f20616c6c6f77616e63650000000000000000000060648201526084015b60405180910390fd5b604080516001600160a01b038416602482015260448082018490528251808303909101815260649091019091526020810180516001600160e01b0390811663095ea7b360e01b17909152620004d5918591620004da16565b505050565b600062000536826040518060400160405280602081526020017f5361666545524332303a206c6f772d6c6576656c2063616c6c206661696c6564815250856001600160a01b0316620005b860201b62000d9a179092919060201c565b805190915015620004d5578080602001905181019062000557919062000987565b620004d55760405162461bcd60e51b815260206004820152602a60248201527f5361666545524332303a204552433230206f7065726174696f6e20646964206e6044820152691bdd081cdd58d8d9595960b21b606482015260840162000474565b6060620005c98484600085620005d1565b949350505050565b606082471015620006345760405162461bcd60e51b815260206004820152602660248201527f416464726573733a20696e73756666696369656e742062616c616e636520666f6044820152651c8818d85b1b60d21b606482015260840162000474565b600080866001600160a01b03168587604051620006529190620009de565b60006040518083038185875af1925050503d806000811462000691576040519150601f19603f3d011682016040523d82523d6000602084013e62000696565b606091505b509092509050620006aa87838387620006b5565b979650505050505050565b60608315620007265782516200071e576001600160a01b0385163b6200071e5760405162461bcd60e51b815260206004820152601d60248201527f416464726573733a2063616c6c20746f206e6f6e2d636f6e7472616374000000604482015260640162000474565b5081620005c9565b620005c983838151156200073d5781518083602001fd5b8060405162461bcd60e51b8152600401620004749190620009fc565b80516001600160a01b03811681146200077157600080fd5b919050565b600080600080608085870312156200078d57600080fd5b620007988562000759565b9350620007a86020860162000759565b9250620007b86040860162000759565b9150620007c86060860162000759565b905092959194509250565b600060208284031215620007e657600080fd5b815160ff81168114620007f857600080fd5b9392505050565b634e487b7160e01b600052601160045260246000fd5b600060ff821660ff841680821015620008325762000832620007ff565b90039392505050565b600181815b808511156200087c578160001904821115620008605762000860620007ff565b808516156200086e57918102915b93841c939080029062000840565b509250929050565b600082620008955750600162000934565b81620008a45750600062000934565b8160018114620008bd5760028114620008c857620008e8565b600191505062000934565b60ff841115620008dc57620008dc620007ff565b50506001821b62000934565b5060208310610133831016604e8410600b84101617156200090d575081810a62000934565b6200091983836200083b565b8060001904821115620009305762000930620007ff565b0290505b92915050565b6000620007f860ff84168362000884565b6000816000190483118215151615620009685762000968620007ff565b500290565b6000602082840312156200098057600080fd5b5051919050565b6000602082840312156200099a57600080fd5b81518015158114620007f857600080fd5b60005b83811015620009c8578181015183820152602001620009ae565b83811115620009d8576000848401525b50505050565b60008251620009f2818460208701620009ab565b9190910192915050565b602081526000825180602084015262000a1d816040850160208701620009ab565b601f01601f19169190910160400192915050565b611b408062000a416000396000f3fe608060405234801561001057600080fd5b50600436106102485760003560e01c806375f12b211161013b578063c7287e9d116100b8578063f2fde38b1161007c578063f2fde38b14610443578063f4e0d9ac14610456578063fad4675e14610469578063fbfa77cf1461047c578063fc0c546a1461048f57600080fd5b8063c7287e9d1461040f578063d0e30db014610417578063d7b4be241461041f578063e7a7250a14610432578063f1a392da1461043a57600080fd5b80639ec5a894116100ff5780639ec5a894146103cb5780639f8b5da1146103de578063b7ddf004146103eb578063ba0e930a146103f4578063c1a3d44c1461040757600080fd5b806375f12b211461038a5780638456cb591461039c5780638912cb8b146103a45780638da5cb5b146103b157806391b4ded9146103c257600080fd5b8063436a88c1116101c9578063573fef0a1161018d578063573fef0a1461033c5780635c975abb146103445780636ec232d314610362578063715018a61461037a578063722713f71461038257600080fd5b8063436a88c11461030a5780634641257d146103135780634700d3051461031b578063481c6a75146103235780634b270a461461033457600080fd5b80631c75b6b2116102105780631c75b6b2146102b85780631f1fcd51146102cb5780632e1a7d4d146102dc5780633f4ba83a146102ef578063410dbf7e146102f757600080fd5b8063046f7da21461024d57806307da68f5146102575780630e8fbb5a1461025f578063115880861461027257806316f0115b1461028d575b600080fd5b6102556104a2565b005b6102556104c4565b61025561026d36600461196d565b6104e4565b61027a6104ff565b6040519081526020015b60405180910390f35b6005546102a0906001600160a01b031681565b6040516001600160a01b039091168152602001610284565b6102556102c6366004611991565b610586565b6004546001600160a01b03166102a0565b6102556102ea366004611991565b6105e5565b6102556105f1565b610255610305366004611991565b610601565b61027a600b5481565b61025561065b565b610255610745565b6001546001600160a01b03166102a0565b600c5461027a565b61025561082a565b600154600160a01b900460ff165b6040519015158152602001610284565b6003546102a09061010090046001600160a01b031681565b61025561088e565b61027a6108a0565b600354600160a81b900460ff16610352565b6102556108c1565b600f546103529060ff1681565b6000546001600160a01b03166102a0565b61027a60025481565b6007546102a0906001600160a01b031681565b6003546103529060ff1681565b61027a600e5481565b6102556104023660046119aa565b6108d9565b61027a610951565b600b5461027a565b6102556109c3565b6008546102a0906001600160a01b031681565b61027a610b48565b61027a60105481565b6102556104513660046119aa565b610b92565b6102556104643660046119aa565b610c08565b61025561047736600461196d565b610c32565b6006546102a0906001600160a01b031681565b6004546102a0906001600160a01b031681565b6104aa610db1565b6104b2610e0b565b6104ba610e5b565b6104c26109c3565b565b6104cc610db1565b6104d4610e7a565b6104dc610fd1565b6104c2611014565b6104ec611032565b600f805460ff1916911515919091179055565b600554604051633b5a0d4160e21b815230600482015260009182916001600160a01b039091169063ed68350490602401602060405180830381865afa15801561054c573d6000803e3d6000fd5b505050506040513d601f19601f8201168201806040525081019061057091906119d3565b9050600a54816105809190611a02565b91505090565b61058e611032565b600d54600c5461059e9083611a24565b11156105e05760405162461bcd60e51b815260206004820152600c60248201526b0cccaca40e8dede40d0d2ced60a31b60448201526064015b60405180910390fd5b600b55565b6105ee816110b8565b50565b6105f9611032565b6104ba6112c8565b610609611032565b600d54600b546106199083611a24565b11156106565760405162461bcd60e51b815260206004820152600c60248201526b0cccaca40e8dede40d0d2ced60a31b60448201526064016105d7565b600c55565b60035460ff16801561067d575060035461010090046001600160a01b03163b15155b1561073d57600360019054906101000a90046001600160a01b03166001600160a01b0316633de39c116040518163ffffffff1660e01b81526004016020604051808303816000875af11580156106d7573d6000803e3d6000fd5b505050506040513d601f19601f820116820180604052508101906106fb91906119d3565b3a111561073d5760405162461bcd60e51b815260206004820152601060248201526f67617320697320746f6f20686967682160801b60448201526064016105d7565b6104c2610e7a565b61074d610db1565b6107556104c4565b600760009054906101000a90046001600160a01b03166001600160a01b03166354c5aee16040518163ffffffff1660e01b8152600401600060405180830381600087803b1580156107a557600080fd5b505af11580156107b9573d6000803e3d6000fd5b50506005546001600160a01b03169150632e1a7d4d90506107d86104ff565b6040518263ffffffff1660e01b81526004016107f691815260200190565b600060405180830381600087803b15801561081057600080fd5b505af1158015610824573d6000803e3d6000fd5b50505050565b600f5460ff1680156108465750600154600160a01b900460ff16155b156104c2576006546001600160a01b0316331461073d5760405162461bcd60e51b8152602060048201526006602482015265085d985d5b1d60d21b60448201526064016105d7565b610896610db1565b6104c26000611304565b60006108aa6104ff565b6108b2610951565b6108bc9190611a24565b905090565b6108c9611032565b6108d1610e7a565b6104c2611354565b6108e1610db1565b6001600160a01b0381166109485760405162461bcd60e51b815260206004820152602860248201527f4f776e61626c653a206e6577206d616e6167657220697320746865207a65726f604482015267206164647265737360c01b60648201526084016105d7565b6105ee81611368565b600480546040516370a0823160e01b815230928101929092526000916001600160a01b03909116906370a0823190602401602060405180830381865afa15801561099f573d6000803e3d6000fd5b505050506040513d601f19601f820116820180604052508101906108bc91906119d3565b6109cb6113ba565b600154600160a01b900460ff1615610a1a577f62d8f0c1a18eaa80d27d2404ac9a7853e271a84236b34c348fb79cb56f667362610a066108a0565b6040519081526020015b60405180910390a1565b600480546040516370a0823160e01b815230928101929092526000916001600160a01b03909116906370a0823190602401602060405180830381865afa158015610a68573d6000803e3d6000fd5b505050506040513d601f19601f82011682018060405250810190610a8c91906119d3565b905080156105ee57600554600a546001600160a01b039091169063b6b55f2590610ab69084611a3c565b6040518263ffffffff1660e01b8152600401610ad491815260200190565b600060405180830381600087803b158015610aee57600080fd5b505af1158015610b02573d6000803e3d6000fd5b505042600e55507f4d6ce1e535dbade1c23defba91e23b8f791ce5edc0cc320257a2b364e4e384269050610b346108a0565b60405190815260200160405180910390a150565b600754604080516338359faf60e11b815290516000926001600160a01b03169163706b3f5e9160048083019260209291908290030181865afa15801561099f573d6000803e3d6000fd5b610b9a610db1565b6001600160a01b038116610bff5760405162461bcd60e51b815260206004820152602660248201527f4f776e61626c653a206e6577206f776e657220697320746865207a65726f206160448201526564647265737360d01b60648201526084016105d7565b6105ee81611304565b610c10610db1565b600880546001600160a01b0319166001600160a01b0392909216919091179055565b610c3a610db1565b6003805460ff1916911515919091179055565b801580610cc75750604051636eb1769f60e11b81523060048201526001600160a01b03838116602483015284169063dd62ed3e90604401602060405180830381865afa158015610ca1573d6000803e3d6000fd5b505050506040513d601f19601f82011682018060405250810190610cc591906119d3565b155b610d325760405162461bcd60e51b815260206004820152603660248201527f5361666545524332303a20617070726f76652066726f6d206e6f6e2d7a65726f60448201527520746f206e6f6e2d7a65726f20616c6c6f77616e636560501b60648201526084016105d7565b6040516001600160a01b038316602482015260448101829052610d9590849063095ea7b360e01b906064015b60408051601f198184030181529190526020810180516001600160e01b03166001600160e01b031990931692909217909152611409565b505050565b6060610da984846000856114db565b949350505050565b6000546001600160a01b031633146104c25760405162461bcd60e51b815260206004820181905260248201527f4f776e61626c653a2063616c6c6572206973206e6f7420746865206f776e657260448201526064016105d7565b610e136115b6565b6003805460ff60a81b191690557f5d287a3a02ade76478d8449abebe9dc45b38421247132b68127dd3cd6c05f3cf335b6040516001600160a01b039091168152602001610a10565b6005546004546104c2916001600160a01b039182169116600019610c4d565b610e82611608565b610e8a6113ba565b600760009054906101000a90046001600160a01b03166001600160a01b03166354c5aee16040518163ffffffff1660e01b8152600401600060405180830381600087803b158015610eda57600080fd5b505af1158015610eee573d6000803e3d6000fd5b5050600480546040516370a0823160e01b81523092810192909252600093506001600160a01b031691506370a0823190602401602060405180830381865afa158015610f3e573d6000803e3d6000fd5b505050506040513d601f19601f82011682018060405250810190610f6291906119d3565b905080156105ee57610f72611655565b6000610f7c610951565b9050610f866109c3565b42601055337f9bc239f1724cacfb88cb1d66a2dc437467699b68a8c90d7b63110cf4b6f9241082610fb56108a0565b6040805192835260208301919091520160405180910390a25050565b610fd96113ba565b6003805460ff60a81b1916600160a81b1790557f55c4adf1f68f084b809304657594a92ba835ada8d3b5340955bf05746723c05b610e433390565b6005546004546104c2916001600160a01b0391821691166000610c4d565b6000546001600160a01b031633148061105557506001546001600160a01b031633145b6104c25760405162461bcd60e51b815260206004820152602e60248201527f4d616e61676561626c653a2063616c6c6572206973206e6f7420746865206d6160448201526d3730b3b2b91037b91037bbb732b960911b60648201526084016105d7565b6006546001600160a01b031633146110fb5760405162461bcd60e51b8152602060048201526006602482015265085d985d5b1d60d21b60448201526064016105d7565b600480546040516370a0823160e01b815230928101929092526000916001600160a01b03909116906370a0823190602401602060405180830381865afa158015611149573d6000803e3d6000fd5b505050506040513d601f19601f8201168201806040525081019061116d91906119d3565b90508181101561126157600a546000906111878385611a5b565b6111919190611a3c565b600554604051632e1a7d4d60e01b8152600481018390529192506001600160a01b031690632e1a7d4d90602401600060405180830381600087803b1580156111d857600080fd5b505af11580156111ec573d6000803e3d6000fd5b5050600480546040516370a0823160e01b815230928101929092526001600160a01b031692506370a082319150602401602060405180830381865afa158015611239573d6000803e3d6000fd5b505050506040513d601f19601f8201168201806040525081019061125d91906119d3565b9150505b8181111561126c5750805b600654600454611289916001600160a01b03918216911683611801565b7f5b6b431d4476a211bb7d41c20d1aab9ae2321deee0d20be3d9fc9b1093fa6e3d6112b26108a0565b6040519081526020015b60405180910390a15050565b6112d0611831565b6001805460ff60a01b191690557f5db9ee0a495bf2e6ff9c91a7834c1ba4fdd244a5e8aa4e537bd38aeae4b073aa33610e43565b600080546001600160a01b038381166001600160a01b0319831681178455604051919092169283917f8be0079c531659141344cd1fd0a4f28419497f9722a3daafe3b4186f6b6457e09190a35050565b61135c611608565b426002556104c2611881565b600180546001600160a01b038381166001600160a01b0319831681179093556040519116919082907f9cb45c728de594dab506a1f1a8554e24c8eeaf983618d5ec5dd7bc6f3c49feee90600090a35050565b600354600160a81b900460ff16156104c25760405162461bcd60e51b815260206004820152601260248201527114dd1bdc1c18589b194e881cdd1bdc1c195960721b60448201526064016105d7565b600061145e826040518060400160405280602081526020017f5361666545524332303a206c6f772d6c6576656c2063616c6c206661696c6564815250856001600160a01b0316610d9a9092919063ffffffff16565b805190915015610d95578080602001905181019061147c9190611a72565b610d955760405162461bcd60e51b815260206004820152602a60248201527f5361666545524332303a204552433230206f7065726174696f6e20646964206e6044820152691bdd081cdd58d8d9595960b21b60648201526084016105d7565b60608247101561153c5760405162461bcd60e51b815260206004820152602660248201527f416464726573733a20696e73756666696369656e742062616c616e636520666f6044820152651c8818d85b1b60d21b60648201526084016105d7565b600080866001600160a01b031685876040516115589190611abb565b60006040518083038185875af1925050503d8060008114611595576040519150601f19603f3d011682016040523d82523d6000602084013e61159a565b606091505b50915091506115ab878383876118c4565b979650505050505050565b600354600160a81b900460ff166104c25760405162461bcd60e51b815260206004820152601660248201527514dd1bdc1c18589b194e881b9bdd081cdd1bdc1c195960521b60448201526064016105d7565b600154600160a01b900460ff16156104c25760405162461bcd60e51b815260206004820152601060248201526f14185d5cd8589b194e881c185d5cd95960821b60448201526064016105d7565b600954600b54600480546040516370a0823160e01b8152309281019290925260009392916001600160a01b03909116906370a0823190602401602060405180830381865afa1580156116ab573d6000803e3d6000fd5b505050506040513d601f19601f820116820180604052508101906116cf91906119d3565b6116d99190611a3c565b6116e39190611a02565b600954600c54600480546040516370a0823160e01b815230928101929092529394506000936001600160a01b0316906370a0823190602401602060405180830381865afa158015611738573d6000803e3d6000fd5b505050506040513d601f19601f8201168201806040525081019061175c91906119d3565b6117669190611a3c565b6117709190611a02565b905061179a6117876000546001600160a01b031690565b6004546001600160a01b03169084611801565b80156117bd576008546004546117bd916001600160a01b03918216911683611801565b600b547f7b28cbe16017943a65fcc059a53072c1b23b17da20571041d0555074ec88c434906117ec8385611a24565b604080519283526020830191909152016112bc565b6040516001600160a01b038316602482015260448101829052610d9590849063a9059cbb60e01b90606401610d5e565b600154600160a01b900460ff166104c25760405162461bcd60e51b815260206004820152601460248201527314185d5cd8589b194e881b9bdd081c185d5cd95960621b60448201526064016105d7565b611889611608565b6001805460ff60a01b1916600160a01b1790557f62e78cea01bee320cd4e420270b5ea74000d11b0c9f74754ebdbfc544b05a258610e433390565b60608315611930578251611929576001600160a01b0385163b6119295760405162461bcd60e51b815260206004820152601d60248201527f416464726573733a2063616c6c20746f206e6f6e2d636f6e747261637400000060448201526064016105d7565b5081610da9565b610da983838151156119455781518083602001fd5b8060405162461bcd60e51b81526004016105d79190611ad7565b80151581146105ee57600080fd5b60006020828403121561197f57600080fd5b813561198a8161195f565b9392505050565b6000602082840312156119a357600080fd5b5035919050565b6000602082840312156119bc57600080fd5b81356001600160a01b038116811461198a57600080fd5b6000602082840312156119e557600080fd5b5051919050565b634e487b7160e01b600052601160045260246000fd5b600082611a1f57634e487b7160e01b600052601260045260246000fd5b500490565b60008219821115611a3757611a376119ec565b500190565b6000816000190483118215151615611a5657611a566119ec565b500290565b600082821015611a6d57611a6d6119ec565b500390565b600060208284031215611a8457600080fd5b815161198a8161195f565b60005b83811015611aaa578181015183820152602001611a92565b838111156108245750506000910152565b60008251611acd818460208701611a8f565b9190910192915050565b6020815260008251806020840152611af6816040850160208701611a8f565b601f01601f1916919091016040019291505056fea26469706673582212202747bf66a84e88f8ef53c03f91152beb04efb88e5b47fe3a1c30e1335d38682964736f6c634300080c0033",
  "linkReferences": {},
  "deployedLinkReferences": {}
}