{
  "_format": "hh-sol-artifact-1",
  "contractName": "YgiPoolStrategy",
  "sourceName": "contracts/strategies/YGI/YgiPoolStrategy.sol",
  "abi": [
    {
      "inputs": [
        {
          "internalType": "address",
          "name": "_inputToken",
          "type": "address"
        },
        {
          "internalType": "address",
          "name": "_uniRouter",
          "type": "address"
        },
        {
          "internalType": "address",
          "name": "_weth",
          "type": "address"
        }
      ],
      "stateMutability": "nonpayable",
      "type": "constructor"
    },
    {
      "anonymous": false,
      "inputs": [
        {
          "indexed": false,
          "internalType": "uint256",
          "name": "deposited",
          "type": "uint256"
        }
      ],
      "name": "Deposit",
      "type": "event"
    },
    {
      "anonymous": false,
      "inputs": [
        {
          "indexed": true,
          "internalType": "address",
          "name": "previousOwner",
          "type": "address"
        },
        {
          "indexed": true,
          "internalType": "address",
          "name": "newOwner",
          "type": "address"
        }
      ],
      "name": "OwnershipTransferred",
      "type": "event"
    },
    {
      "anonymous": false,
      "inputs": [
        {
          "indexed": false,
          "internalType": "address",
          "name": "account",
          "type": "address"
        }
      ],
      "name": "Resumed",
      "type": "event"
    },
    {
      "anonymous": false,
      "inputs": [
        {
          "indexed": false,
          "internalType": "address",
          "name": "account",
          "type": "address"
        }
      ],
      "name": "Stopped",
      "type": "event"
    },
    {
      "anonymous": false,
      "inputs": [
        {
          "indexed": false,
          "internalType": "uint256",
          "name": "withdrawRatio",
          "type": "uint256"
        },
        {
          "indexed": false,
          "internalType": "uint256",
          "name": "withdrawAmount",
          "type": "uint256"
        }
      ],
      "name": "Withdraw",
      "type": "event"
    },
    {
      "anonymous": false,
      "inputs": [],
      "name": "WithdrawFailureSkipped",
      "type": "event"
    },
    {
      "inputs": [
        {
          "internalType": "uint256",
          "name": "_totalAmount",
          "type": "uint256"
        }
      ],
      "name": "deposit",
      "outputs": [],
      "stateMutability": "nonpayable",
      "type": "function"
    },
    {
      "inputs": [
        {
          "internalType": "address",
          "name": "_vault",
          "type": "address"
        },
        {
          "internalType": "bool",
          "name": "skipOnFail",
          "type": "bool"
        }
      ],
      "name": "deregisterYgiComponent",
      "outputs": [],
      "stateMutability": "nonpayable",
      "type": "function"
    },
    {
      "inputs": [
        {
          "internalType": "address",
          "name": "_vault",
          "type": "address"
        }
      ],
      "name": "getIndex",
      "outputs": [
        {
          "internalType": "uint256",
          "name": "",
          "type": "uint256"
        }
      ],
      "stateMutability": "view",
      "type": "function"
    },
    {
      "inputs": [],
      "name": "lastPoolDepositTime",
      "outputs": [
        {
          "internalType": "uint256",
          "name": "",
          "type": "uint256"
        }
      ],
      "stateMutability": "view",
      "type": "function"
    },
    {
      "inputs": [],
      "name": "owner",
      "outputs": [
        {
          "internalType": "address",
          "name": "",
          "type": "address"
        }
      ],
      "stateMutability": "view",
      "type": "function"
    },
    {
      "inputs": [],
      "name": "panic",
      "outputs": [],
      "stateMutability": "nonpayable",
      "type": "function"
    },
    {
      "inputs": [
        {
          "internalType": "address",
          "name": "_vault",
          "type": "address"
        },
        {
          "internalType": "uint256",
          "name": "amount",
          "type": "uint256"
        }
      ],
      "name": "rebalance",
      "outputs": [],
      "stateMutability": "nonpayable",
      "type": "function"
    },
    {
      "inputs": [
        {
          "internalType": "address",
          "name": "inputToken",
          "type": "address"
        },
        {
          "internalType": "address",
          "name": "vaultAddress",
          "type": "address"
        },
        {
          "internalType": "uint256",
          "name": "allocation",
          "type": "uint256"
        },
        {
          "internalType": "address[]",
          "name": "_route",
          "type": "address[]"
        },
        {
          "internalType": "uint24[]",
          "name": "_fee",
          "type": "uint24[]"
        },
        {
          "internalType": "address[]",
          "name": "_backRoute",
          "type": "address[]"
        },
        {
          "internalType": "uint24[]",
          "name": "_backFee",
          "type": "uint24[]"
        }
      ],
      "name": "registerYgiComponent",
      "outputs": [],
      "stateMutability": "nonpayable",
      "type": "function"
    },
    {
      "inputs": [],
      "name": "renounceOwnership",
      "outputs": [],
      "stateMutability": "nonpayable",
      "type": "function"
    },
    {
      "inputs": [],
      "name": "resume",
      "outputs": [],
      "stateMutability": "nonpayable",
      "type": "function"
    },
    {
      "inputs": [
        {
          "internalType": "address",
          "name": "_uniRouter",
          "type": "address"
        }
      ],
      "name": "setUniRouter",
      "outputs": [],
      "stateMutability": "nonpayable",
      "type": "function"
    },
    {
      "inputs": [],
      "name": "stop",
      "outputs": [],
      "stateMutability": "nonpayable",
      "type": "function"
    },
    {
      "inputs": [],
      "name": "stopped",
      "outputs": [
        {
          "internalType": "bool",
          "name": "",
          "type": "bool"
        }
      ],
      "stateMutability": "view",
      "type": "function"
    },
    {
      "inputs": [
        {
          "internalType": "address",
          "name": "newOwner",
          "type": "address"
        }
      ],
      "name": "transferOwnership",
      "outputs": [],
      "stateMutability": "nonpayable",
      "type": "function"
    },
    {
      "inputs": [],
      "name": "uniRouter",
      "outputs": [
        {
          "internalType": "address",
          "name": "",
          "type": "address"
        }
      ],
      "stateMutability": "view",
      "type": "function"
    },
    {
      "inputs": [
        {
          "internalType": "address",
          "name": "",
          "type": "address"
        },
        {
          "internalType": "address",
          "name": "",
          "type": "address"
        }
      ],
      "name": "userToVaultToAmount",
      "outputs": [
        {
          "internalType": "uint256",
          "name": "",
          "type": "uint256"
        }
      ],
      "stateMutability": "view",
      "type": "function"
    },
    {
      "inputs": [],
      "name": "weth",
      "outputs": [
        {
          "internalType": "address",
          "name": "",
          "type": "address"
        }
      ],
      "stateMutability": "view",
      "type": "function"
    },
    {
      "inputs": [
        {
          "internalType": "uint256",
          "name": "_ratio",
          "type": "uint256"
        },
        {
          "internalType": "bool",
          "name": "skipOnWithdrawFail",
          "type": "bool"
        },
        {
          "internalType": "bool",
          "name": "withdrawIndividual",
          "type": "bool"
        }
      ],
      "name": "withdraw",
      "outputs": [],
      "stateMutability": "nonpayable",
      "type": "function"
    },
    {
      "inputs": [
        {
          "internalType": "uint256",
          "name": "",
          "type": "uint256"
        }
      ],
      "name": "ygiComponents",
      "outputs": [
        {
          "internalType": "address",
          "name": "inputToken",
          "type": "address"
        },
        {
          "internalType": "address",
          "name": "vault",
          "type": "address"
        },
        {
          "internalType": "uint256",
          "name": "allocation",
          "type": "uint256"
        },
        {
          "components": [
            {
              "internalType": "address[]",
              "name": "aToBRoute",
              "type": "address[]"
            },
            {
              "internalType": "uint24[]",
              "name": "aToBFees",
              "type": "uint24[]"
            },
            {
              "internalType": "bytes",
              "name": "path",
              "type": "bytes"
            }
          ],
          "internalType": "struct YgiPoolStrategy.Route",
          "name": "route",
          "type": "tuple"
        },
        {
          "components": [
            {
              "internalType": "address[]",
              "name": "aToBRoute",
              "type": "address[]"
            },
            {
              "internalType": "uint24[]",
              "name": "aToBFees",
              "type": "uint24[]"
            },
            {
              "internalType": "bytes",
              "name": "path",
              "type": "bytes"
            }
          ],
          "internalType": "struct YgiPoolStrategy.Route",
          "name": "backRoute",
          "type": "tuple"
        }
      ],
      "stateMutability": "view",
      "type": "function"
    },
    {
      "inputs": [],
      "name": "ygiInputToken",
      "outputs": [
        {
          "internalType": "address",
          "name": "",
          "type": "address"
        }
      ],
      "stateMutability": "view",
      "type": "function"
    }
  ],
  "bytecode": "0x60806040523480156200001157600080fd5b5060405162003c3b38038062003c3b833981016040819052620000349162000618565b6200003f336200012f565b6000805460ff60a01b1916905560018055600380546001600160a01b038085166001600160a01b0319928316179092556002805492861692909116821790556040805163313ce56760e01b8152905163313ce567916004808201926020929091908290030181865afa158015620000ba573d6000803e3d6000fd5b505050506040513d601f19601f82011682018060405250810190620000e0919062000662565b620000ed90600a620007a3565b600755600480546001600160a01b0319166001600160a01b0383811691909117909155600354600254620001269291821691166200017f565b50505062000878565b600080546001600160a01b038381166001600160a01b0319831681178455604051919092169283917f8be0079c531659141344cd1fd0a4f28419497f9722a3daafe3b4186f6b6457e09190a35050565b604051636eb1769f60e11b81523060048201526001600160a01b038381166024830152600019919083169063dd62ed3e90604401602060405180830381865afa158015620001d1573d6000803e3d6000fd5b505050506040513d601f19601f82011682018060405250810190620001f79190620007b4565b101562000225576200022582600019836001600160a01b03166200022960201b62001afc179092919060201c565b5050565b801580620002a75750604051636eb1769f60e11b81523060048201526001600160a01b03838116602483015284169063dd62ed3e90604401602060405180830381865afa1580156200027f573d6000803e3d6000fd5b505050506040513d601f19601f82011682018060405250810190620002a59190620007b4565b155b6200031f5760405162461bcd60e51b815260206004820152603660248201527f5361666545524332303a20617070726f76652066726f6d206e6f6e2d7a65726f60448201527f20746f206e6f6e2d7a65726f20616c6c6f77616e63650000000000000000000060648201526084015b60405180910390fd5b604080516001600160a01b038416602482015260448082018490528251808303909101815260649091019091526020810180516001600160e01b0390811663095ea7b360e01b17909152620003779185916200037c16565b505050565b6000620003d8826040518060400160405280602081526020017f5361666545524332303a206c6f772d6c6576656c2063616c6c206661696c6564815250856001600160a01b03166200045a60201b62001c44179092919060201c565b805190915015620003775780806020019051810190620003f99190620007ce565b620003775760405162461bcd60e51b815260206004820152602a60248201527f5361666545524332303a204552433230206f7065726174696f6e20646964206e6044820152691bdd081cdd58d8d9595960b21b606482015260840162000316565b60606200046b848460008562000473565b949350505050565b606082471015620004d65760405162461bcd60e51b815260206004820152602660248201527f416464726573733a20696e73756666696369656e742062616c616e636520666f6044820152651c8818d85b1b60d21b606482015260840162000316565b600080866001600160a01b03168587604051620004f4919062000825565b60006040518083038185875af1925050503d806000811462000533576040519150601f19603f3d011682016040523d82523d6000602084013e62000538565b606091505b5090925090506200054c8783838762000557565b979650505050505050565b60608315620005c8578251620005c0576001600160a01b0385163b620005c05760405162461bcd60e51b815260206004820152601d60248201527f416464726573733a2063616c6c20746f206e6f6e2d636f6e7472616374000000604482015260640162000316565b50816200046b565b6200046b8383815115620005df5781518083602001fd5b8060405162461bcd60e51b815260040162000316919062000843565b80516001600160a01b03811681146200061357600080fd5b919050565b6000806000606084860312156200062e57600080fd5b6200063984620005fb565b92506200064960208501620005fb565b91506200065960408501620005fb565b90509250925092565b6000602082840312156200067557600080fd5b815160ff811681146200068757600080fd5b9392505050565b634e487b7160e01b600052601160045260246000fd5b600181815b80851115620006e5578160001904821115620006c957620006c96200068e565b80851615620006d757918102915b93841c9390800290620006a9565b509250929050565b600082620006fe575060016200079d565b816200070d575060006200079d565b8160018114620007265760028114620007315762000751565b60019150506200079d565b60ff8411156200074557620007456200068e565b50506001821b6200079d565b5060208310610133831016604e8410600b841016171562000776575081810a6200079d565b620007828383620006a4565b80600019048211156200079957620007996200068e565b0290505b92915050565b60006200068760ff841683620006ed565b600060208284031215620007c757600080fd5b5051919050565b600060208284031215620007e157600080fd5b815180151581146200068757600080fd5b60005b838110156200080f578181015183820152602001620007f5565b838111156200081f576000848401525b50505050565b6000825162000839818460208701620007f2565b9190910192915050565b602081526000825180602084015262000864816040850160208701620007f2565b601f01601f19169190910160400192915050565b6133b380620008886000396000f3fe608060405234801561001057600080fd5b506004361061012c5760003560e01c80638da5cb5b116100ad578063b6b55f2511610071578063b6b55f251461026f578063b7ddf00414610282578063e814f6971461028b578063ee4e2687146102af578063f2fde38b146102c257600080fd5b80638da5cb5b146101ec57806392930b45146101fd57806394b38c5b14610210578063a0e47bf614610249578063b31610db1461025c57600080fd5b80633da9b9d0116100f45780633da9b9d0146101995780633fc8cef3146101ac5780634700d305146101bf578063715018a6146101c757806375f12b21146101cf57600080fd5b8063046f7da21461013157806307da68f51461013b5780631defa63f14610143578063292f5ca2146101565780632c29546b14610186575b600080fd5b6101396102d5565b005b6101396102e7565b610139610151366004612e0c565b6102f7565b600254610169906001600160a01b031681565b6040516001600160a01b0390911681526020015b60405180910390f35b610139610194366004612ef2565b610556565b6101396101a7366004612f2b565b61079f565b600454610169906001600160a01b031681565b610139610ab3565b610139610ac3565b600054600160a01b900460ff16604051901515815260200161017d565b6000546001600160a01b0316610169565b61013961020b366004612f57565b610ad5565b61023b61021e366004612f99565b600960209081526000928352604080842090915290825290205481565b60405190815260200161017d565b600354610169906001600160a01b031681565b61023b61026a366004612fc7565b611126565b61013961027d366004612feb565b6111c7565b61023b60085481565b61029e610299366004612feb565b611714565b60405161017d9594939291906130fe565b6101396102bd366004612fc7565b611a5c565b6101396102d0366004612fc7565b611a86565b6102dd611c5b565b6102e5611cb5565b565b6102ef611c5b565b6102e5611d00565b6102ff611c5b565b600060405180606001604052808681526020018581526020016103228787611d4b565b81525090506000604051806060016040528085815260200184815260200161034a8686611d4b565b815250905060006040518060a001604052808b6001600160a01b031681526020018a6001600160a01b03168152602001898152602001848152602001838152509050876005600082825461039e9190613165565b90915550506006805460018101825560009190915281517ff652222313e28459528d920b65115c16c04f3efc82aaedc97be59f3f377c0d3f600990920291820180546001600160a01b03199081166001600160a01b039384161782556020808601517ff652222313e28459528d920b65115c16c04f3efc82aaedc97be59f3f377c0d4086018054909316941693909317905560408401517ff652222313e28459528d920b65115c16c04f3efc82aaedc97be59f3f377c0d418401556060840151805180518695939492937ff652222313e28459528d920b65115c16c04f3efc82aaedc97be59f3f377c0d420192610499928492910190612986565b5060208281015180516104b292600185019201906129eb565b50604082015180516104ce916002840191602090910190612a92565b50505060808201518051805160068401916104ee91839160200190612986565b50602082810151805161050792600185019201906129eb565b5060408201518051610523916002840191602090910190612a92565b505060035461054093506001600160a01b031691508c9050611e2f565b61054a898b611e2f565b50505050505050505050565b61055e611c5b565b600061056983611126565b90506000600682815481106105805761058061317d565b906000526020600020906009020190508060020154600560008282546105a69190613193565b909155506105b690508184611ec4565b600680546105c690600190613193565b815481106105d6576105d661317d565b9060005260206000209060090201600683815481106105f7576105f761317d565b60009182526020909120825460099092020180546001600160a01b039283166001600160a01b03199182161782556001808501549083018054919094169116179091556002808301549082015560038083018054909183019061065d9082908490612b06565b50600182810180546106729284019190612b46565b506002820181600201908054610687906131aa565b610692929190612b93565b5050506006828101805490918301906106ae9082908490612b06565b50600182810180546106c39284019190612b46565b5060028201816002019080546106d8906131aa565b6106e3929190612b93565b50505090505060068054806106fa576106fa6131e5565b60008281526020812060096000199093019283020180546001600160a01b031990811682556001820180549091169055600281018290559060038201816107418282612c0d565b61074f600183016000612c2b565b61075d600283016000612c50565b505060068201600061076f8282612c0d565b61077d600183016000612c2b565b61078b600283016000612c50565b50505050905561079961212d565b50505050565b6107a7611c5b565b600060066107b484611126565b815481106107c4576107c461317d565b906000526020600020906009020190508060010160009054906101000a90046001600160a01b03166001600160a01b031663a8c62e766040518163ffffffff1660e01b8152600401602060405180830381865afa158015610829573d6000803e3d6000fd5b505050506040513d601f19601f8201168201806040525081019061084d91906131fb565b6001600160a01b0316632e1a7d4d836040518263ffffffff1660e01b815260040161087a91815260200190565b600060405180830381600087803b15801561089457600080fd5b505af11580156108a8573d6000803e3d6000fd5b505082546040516370a0823160e01b8152306004820152600093506001600160a01b0390911691506370a0823190602401602060405180830381865afa1580156108f6573d6000803e3d6000fd5b505050506040513d601f19601f8201168201806040525081019061091a9190613218565b90508015610aab57604080516006840180546080602082028401810190945260608301818152610aa9948694939284929184919084018282801561098757602002820191906000526020600020905b81546001600160a01b03168152600190910190602001808311610969575b5050505050815260200160018201805480602002602001604051908101604052809291908181526020018280548015610a0957602002820191906000526020600020906000905b82829054906101000a900462ffffff1662ffffff16815260200190600301906020826002010492830192600103820291508084116109ce5790505b50505050508152602001600282018054610a22906131aa565b80601f0160208091040260200160405190810160405280929190818152602001828054610a4e906131aa565b8015610a9b5780601f10610a7057610100808354040283529160200191610a9b565b820191906000526020600020905b815481529060010190602001808311610a7e57829003601f168201915b5050505050815250506124a2565b505b61079961212d565b610abb611c5b565b6102e56102e7565b610acb611c5b565b6102e560006124ec565b610add61253c565b600754831115610b255760405162461bcd60e51b815260206004820152600e60248201526d0a4c2e8d2de40e8dede40d0d2ced60931b60448201526064015b60405180910390fd5b6000805b600654811015610f7057600060068281548110610b4857610b4861317d565b600091825260208083206009928302016001015433845291815260408084206001600160a01b03909316808552929091528220546007549193509190610b8e8984613231565b610b989190613250565b6040516370a0823160e01b81523060048201529091506000906001600160a01b038516906370a0823190602401602060405180830381865afa158015610be2573d6000803e3d6000fd5b505050506040513d601f19601f82011682018060405250810190610c069190613218565b604051632e1a7d4d60e01b8152600481018490529091506001600160a01b03851690632e1a7d4d90602401600060405180830381600087803b158015610c4b57600080fd5b505af1925050508015610c5c575060015b610cce5787610ca15760405162461bcd60e51b815260206004820152601160248201527015da5d1a191c985dd85b0819985a5b1959607a1b6044820152606401610b1c565b6040517ec5d4fb94698efcffde29759595c5def502ec9f2ca5b77b0e49b0c07967e9c090600090a1610daf565b6040516370a0823160e01b81523060048201526000906001600160a01b038616906370a0823190602401602060405180830381865afa158015610d15573d6000803e3d6000fd5b505050506040513d601f19601f82011682018060405250810190610d399190613218565b9050610d458183613193565b336000908152600960205260408120600680549192918a908110610d6b57610d6b61317d565b60009182526020808320600160099093020191909101546001600160a01b0316835282019290925260400181208054909190610da8908490613193565b9091555050505b86610f5957600060068681548110610dc957610dc961317d565b60009182526020909120600990910201546040516370a0823160e01b81523060048201526001600160a01b03909116906370a0823190602401602060405180830381865afa158015610e1f573d6000803e3d6000fd5b505050506040513d601f19601f82011682018060405250810190610e439190613218565b90508015610f5757610f4a8160068881548110610e6257610e6261317d565b906000526020600020906009020160060160405180606001604052908160008201805480602002602001604051908101604052809291908181526020018280548015610987576020028201919060005260206000209081546001600160a01b03168152600190910190602001808311610969575050505050815260200160018201805480602002602001604051908101604052809291908181526020018280548015610a09576000918252602091829020805462ffffff1684529082028301929091600391018084116109ce57905050505050508152602001600282018054610a22906131aa565b610f549088613165565b96505b505b505050508080610f6890613272565b915050610b29565b5081156110c65760005b6006548110156110c057600060068281548110610f9957610f9961317d565b60009182526020909120600990910201546040516370a0823160e01b81523060048201526001600160a01b03909116906370a0823190602401602060405180830381865afa158015610fef573d6000803e3d6000fd5b505050506040513d601f19601f820116820180604052508101906110139190613218565b9050600682815481106110285761102861317d565b600091825260209091206009909102015460405163a9059cbb60e01b8152336004820152602481018390526001600160a01b039091169063a9059cbb906044016020604051808303816000875af1158015611087573d6000803e3d6000fd5b505050506040513d601f19601f820116820180604052508101906110ab919061328d565b505080806110b890613272565b915050610f7a565b50611117565b6002546110dd906001600160a01b03163383612596565b60408051858152602081018390527f56ca301a9219608c91e7bcee90e083c19671d2cdcc96752c7af291cee5f9c8c8910160405180910390a15b5061112160018055565b505050565b6000805b60065481101561118c57826001600160a01b0316600682815481106111515761115161317d565b60009182526020909120600160099092020101546001600160a01b0316141561117a5792915050565b8061118481613272565b91505061112a565b5060405162461bcd60e51b815260206004820152600f60248201526e15985d5b1d081b9bdd08199bdd5b99608a1b6044820152606401610b1c565b6111cf61253c565b6111d76125c6565b6002546111ef906001600160a01b0316333084612615565b60005b6006548110156116d0576000600682815481106112115761121161317d565b90600052602060002090600902016002015490506000670de0b6b3a7640000600554670de0b6b3a7640000846112479190613231565b6112519190613250565b61125b9086613231565b6112659190613250565b9050600061136882600686815481106112805761128061317d565b906000526020600020906009020160030160405180606001604052908160008201805480602002602001604051908101604052809291908181526020018280548015610987576020028201919060005260206000209081546001600160a01b03168152600190910190602001808311610969575050505050815260200160018201805480602002602001604051908101604052809291908181526020018280548015610a09576000918252602091829020805462ffffff1684529082028301929091600391018084116109ce57905050505050508152602001600282018054610a22906131aa565b905080156116ba576000600685815481106113855761138561317d565b60009182526020909120600990910201600101546040516370a0823160e01b81523060048201526001600160a01b03909116906370a0823190602401602060405180830381865afa1580156113de573d6000803e3d6000fd5b505050506040513d601f19601f820116820180604052508101906114029190613218565b905060006001600160a01b0316600686815481106114225761142261317d565b60009182526020909120600990910201546001600160a01b0316141561152e5760048054604051632e1a7d4d60e01b81529182018490526001600160a01b031690632e1a7d4d90602401600060405180830381600087803b15801561148657600080fd5b505af115801561149a573d6000803e3d6000fd5b50505050600685815481106114b1576114b161317d565b906000526020600020906009020160010160009054906101000a90046001600160a01b03166001600160a01b031663d0e30db0836040518263ffffffff1660e01b81526004016000604051808303818588803b15801561151057600080fd5b505af1158015611524573d6000803e3d6000fd5b50505050506115b1565b600685815481106115415761154161317d565b600091825260209091206009909102016001015460405163b6b55f2560e01b8152600481018490526001600160a01b039091169063b6b55f2590602401600060405180830381600087803b15801561159857600080fd5b505af11580156115ac573d6000803e3d6000fd5b505050505b6000600686815481106115c6576115c661317d565b60009182526020909120600990910201600101546040516370a0823160e01b81523060048201526001600160a01b03909116906370a0823190602401602060405180830381865afa15801561161f573d6000803e3d6000fd5b505050506040513d601f19601f820116820180604052508101906116439190613218565b905061164f8282613193565b336000908152600960205260408120600680549192918a9081106116755761167561317d565b60009182526020808320600160099093020191909101546001600160a01b03168352820192909252604001812080549091906116b2908490613165565b909155505050505b50505080806116c890613272565b9150506111f2565b50426008556040518181527f4d6ce1e535dbade1c23defba91e23b8f791ce5edc0cc320257a2b364e4e384269060200160405180910390a161171160018055565b50565b6006818154811061172457600080fd5b600091825260209182902060099091020180546001820154600283015460408051600386018054608098810283018901909352606082018381526001600160a01b039687169950949095169692959490939092849284918401828280156117b457602002820191906000526020600020905b81546001600160a01b03168152600190910190602001808311611796575b505050505081526020016001820180548060200260200160405190810160405280929190818152602001828054801561183657602002820191906000526020600020906000905b82829054906101000a900462ffffff1662ffffff16815260200190600301906020826002010492830192600103820291508084116117fb5790505b5050505050815260200160028201805461184f906131aa565b80601f016020809104026020016040519081016040528092919081815260200182805461187b906131aa565b80156118c85780601f1061189d576101008083540402835291602001916118c8565b820191906000526020600020905b8154815290600101906020018083116118ab57829003601f168201915b50505050508152505090806006016040518060600160405290816000820180548060200260200160405190810160405280929190818152602001828054801561193a57602002820191906000526020600020905b81546001600160a01b0316815260019091019060200180831161191c575b50505050508152602001600182018054806020026020016040519081016040528092919081815260200182805480156119bc57602002820191906000526020600020906000905b82829054906101000a900462ffffff1662ffffff16815260200190600301906020826002010492830192600103820291508084116119815790505b505050505081526020016002820180546119d5906131aa565b80601f0160208091040260200160405190810160405280929190818152602001828054611a01906131aa565b8015611a4e5780601f10611a2357610100808354040283529160200191611a4e565b820191906000526020600020905b815481529060010190602001808311611a3157829003601f168201915b505050505081525050905085565b611a64611c5b565b600380546001600160a01b0319166001600160a01b0392909216919091179055565b611a8e611c5b565b6001600160a01b038116611af35760405162461bcd60e51b815260206004820152602660248201527f4f776e61626c653a206e6577206f776e657220697320746865207a65726f206160448201526564647265737360d01b6064820152608401610b1c565b611711816124ec565b801580611b765750604051636eb1769f60e11b81523060048201526001600160a01b03838116602483015284169063dd62ed3e90604401602060405180830381865afa158015611b50573d6000803e3d6000fd5b505050506040513d601f19601f82011682018060405250810190611b749190613218565b155b611be15760405162461bcd60e51b815260206004820152603660248201527f5361666545524332303a20617070726f76652066726f6d206e6f6e2d7a65726f60448201527520746f206e6f6e2d7a65726f20616c6c6f77616e636560501b6064820152608401610b1c565b6040516001600160a01b03831660248201526044810182905261112190849063095ea7b360e01b906064015b60408051601f198184030181529190526020810180516001600160e01b03166001600160e01b03199093169290921790915261264d565b6060611c53848460008561271f565b949350505050565b6000546001600160a01b031633146102e55760405162461bcd60e51b815260206004820181905260248201527f4f776e61626c653a2063616c6c6572206973206e6f7420746865206f776e65726044820152606401610b1c565b611cbd6127fa565b6000805460ff60a01b191690556040513381527f5d287a3a02ade76478d8449abebe9dc45b38421247132b68127dd3cd6c05f3cf906020015b60405180910390a1565b611d086125c6565b6000805460ff60a01b1916600160a01b1790556040513381527f55c4adf1f68f084b809304657594a92ba835ada8d3b5340955bf05746723c05b90602001611cf6565b606082600081518110611d6057611d6061317d565b6020026020010151604051602001611d90919060609190911b6bffffffffffffffffffffffff1916815260140190565b60408051601f19818403018152919052825190915060005b81811015611e275782848281518110611dc357611dc361317d565b602002602001015186836001611dd99190613165565b81518110611de957611de961317d565b6020026020010151604051602001611e03939291906132aa565b60405160208183030381529060405292508080611e1f90613272565b915050611da8565b505092915050565b604051636eb1769f60e11b81523060048201526001600160a01b038381166024830152600019919083169063dd62ed3e90604401602060405180830381865afa158015611e80573d6000803e3d6000fd5b505050506040513d601f19601f82011682018060405250810190611ea49190613218565b1015611ec057611ec06001600160a01b03821683600019611afc565b5050565b60018201546040516370a0823160e01b81523060048201526001600160a01b039091169060009082906370a0823190602401602060405180830381865afa158015611f13573d6000803e3d6000fd5b505050506040513d601f19601f82011682018060405250810190611f379190613218565b604051632e1a7d4d60e01b8152600481018290529091506001600160a01b03831690632e1a7d4d90602401600060405180830381600087803b158015611f7c57600080fd5b505af1925050508015611f8d575060015b611fd85782611fd35760405162461bcd60e51b815260206004820152601260248201527115da5d1a191c985dd05b1b0819985a5b195960721b6044820152606401610b1c565b610799565b83546040516370a0823160e01b81523060048201526000916001600160a01b0316906370a0823190602401602060405180830381865afa158015612020573d6000803e3d6000fd5b505050506040513d601f19601f820116820180604052508101906120449190613218565b90508015612126576040805160068701805460806020820284018101909452606083018181526121249486949392849291849190840182828015610987576020028201919060005260206000209081546001600160a01b03168152600190910190602001808311610969575050505050815260200160018201805480602002602001604051908101604052809291908181526020018280548015610a09576000918252602091829020805462ffffff1684529082028301929091600391018084116109ce57905050505050508152602001600282018054610a22906131aa565b505b5050505050565b6002546040516370a0823160e01b81523060048201526000916001600160a01b0316906370a0823190602401602060405180830381865afa158015612176573d6000803e3d6000fd5b505050506040513d601f19601f8201168201806040525081019061219a9190613218565b905080156117115760005b600654811015611ec0576000600682815481106121c4576121c461317d565b90600052602060002090600902016002015490506000670de0b6b3a7640000600554670de0b6b3a7640000846121fa9190613231565b6122049190613250565b61220e9086613231565b6122189190613250565b9050600061223382600686815481106112805761128061317d565b9050801561248c576000600685815481106122505761225061317d565b60009182526020918290206001600990920201015460408051635463173b60e11b815290516001600160a01b039092169263a8c62e76926004808401938290030181865afa1580156122a6573d6000803e3d6000fd5b505050506040513d601f19601f820116820180604052508101906122ca91906131fb565b905060006001600160a01b0316816001600160a01b03166301b60ef26040518163ffffffff1660e01b8152600401602060405180830381865afa158015612315573d6000803e3d6000fd5b505050506040513d601f19601f8201168201806040525081019061233991906131fb565b6001600160a01b031614156123fd5760048054604051632e1a7d4d60e01b81529182018490526001600160a01b031690632e1a7d4d90602401600060405180830381600087803b15801561238c57600080fd5b505af11580156123a0573d6000803e3d6000fd5b50505050806001600160a01b031663d0e30db0836040518263ffffffff1660e01b81526004016000604051808303818588803b1580156123df57600080fd5b505af11580156123f3573d6000803e3d6000fd5b505050505061248a565b6124368183600688815481106124155761241561317d565b60009182526020909120600990910201546001600160a01b03169190612596565b806001600160a01b031663d0e30db06040518163ffffffff1660e01b8152600401600060405180830381600087803b15801561247157600080fd5b505af1158015612485573d6000803e3d6000fd5b505050505b505b505050808061249a90613272565b9150506121a5565b6000816040015151600014156124b95750816124e6565b82156124e25760035460408301516124db916001600160a01b0316908561284c565b90506124e6565b5060005b92915050565b600080546001600160a01b038381166001600160a01b0319831681178455604051919092169283917f8be0079c531659141344cd1fd0a4f28419497f9722a3daafe3b4186f6b6457e09190a35050565b6002600154141561258f5760405162461bcd60e51b815260206004820152601f60248201527f5265656e7472616e637947756172643a207265656e7472616e742063616c6c006044820152606401610b1c565b6002600155565b6040516001600160a01b03831660248201526044810182905261112190849063a9059cbb60e01b90606401611c0d565b600054600160a01b900460ff16156102e55760405162461bcd60e51b815260206004820152601260248201527114dd1bdc1c18589b194e881cdd1bdc1c195960721b6044820152606401610b1c565b6040516001600160a01b03808516602483015283166044820152606481018290526107999085906323b872dd60e01b90608401611c0d565b60006126a2826040518060400160405280602081526020017f5361666545524332303a206c6f772d6c6576656c2063616c6c206661696c6564815250856001600160a01b0316611c449092919063ffffffff16565b80519091501561112157808060200190518101906126c0919061328d565b6111215760405162461bcd60e51b815260206004820152602a60248201527f5361666545524332303a204552433230206f7065726174696f6e20646964206e6044820152691bdd081cdd58d8d9595960b21b6064820152608401610b1c565b6060824710156127805760405162461bcd60e51b815260206004820152602660248201527f416464726573733a20696e73756666696369656e742062616c616e636520666f6044820152651c8818d85b1b60d21b6064820152608401610b1c565b600080866001600160a01b0316858760405161279c91906132f6565b60006040518083038185875af1925050503d80600081146127d9576040519150601f19603f3d011682016040523d82523d6000602084013e6127de565b606091505b50915091506127ef878383876128eb565b979650505050505050565b600054600160a01b900460ff166102e55760405162461bcd60e51b815260206004820152601660248201527514dd1bdc1c18589b194e881b9bdd081cdd1bdc1c195960521b6044820152606401610b1c565b6040805160a081018252838152306020820152428183015260608101839052600060808201819052915163c04b8d5960e01b81526001600160a01b0386169063c04b8d599061289f908490600401613312565b6020604051808303816000875af11580156128be573d6000803e3d6000fd5b505050506040513d601f19601f820116820180604052508101906128e29190613218565b95945050505050565b60608315612957578251612950576001600160a01b0385163b6129505760405162461bcd60e51b815260206004820152601d60248201527f416464726573733a2063616c6c20746f206e6f6e2d636f6e74726163740000006044820152606401610b1c565b5081611c53565b611c53838381511561296c5781518083602001fd5b8060405162461bcd60e51b8152600401610b1c919061336a565b8280548282559060005260206000209081019282156129db579160200282015b828111156129db57825182546001600160a01b0319166001600160a01b039091161782556020909201916001909101906129a6565b506129e7929150612c86565b5090565b82805482825590600052602060002090600901600a900481019282156129db5791602002820160005b83821115612a5657835183826101000a81548162ffffff021916908362ffffff1602179055509260200192600301602081600201049283019260010302612a14565b8015612a855782816101000a81549062ffffff0219169055600301602081600201049283019260010302612a56565b50506129e7929150612c86565b828054612a9e906131aa565b90600052602060002090601f016020900481019282612ac057600085556129db565b82601f10612ad957805160ff19168380011785556129db565b828001600101855582156129db579182015b828111156129db578251825591602001919060010190612aeb565b8280548282559060005260206000209081019282156129db5760005260206000209182015b828111156129db578254825591600101919060010190612b2b565b82805482825590600052602060002090600901600a900481019282156129db57600052602060002091600901600a90048201828111156129db578254825591600101919060010190612b2b565b828054612b9f906131aa565b90600052602060002090601f016020900481019282612bc157600085556129db565b82601f10612bd257805485556129db565b828001600101855582156129db57600052602060002091601f01602090048201828111156129db578254825591600101919060010190612b2b565b50805460008255906000526020600020908101906117119190612c86565b50805460008255600901600a9004906000526020600020908101906117119190612c86565b508054612c5c906131aa565b6000825580601f10612c6c575050565b601f01602090049060005260206000209081019061171191905b5b808211156129e75760008155600101612c87565b6001600160a01b038116811461171157600080fd5b8035612cbb81612c9b565b919050565b634e487b7160e01b600052604160045260246000fd5b604051601f8201601f1916810167ffffffffffffffff81118282101715612cff57612cff612cc0565b604052919050565b600067ffffffffffffffff821115612d2157612d21612cc0565b5060051b60200190565b600082601f830112612d3c57600080fd5b81356020612d51612d4c83612d07565b612cd6565b82815260059290921b84018101918181019086841115612d7057600080fd5b8286015b84811015612d94578035612d8781612c9b565b8352918301918301612d74565b509695505050505050565b600082601f830112612db057600080fd5b81356020612dc0612d4c83612d07565b82815260059290921b84018101918181019086841115612ddf57600080fd5b8286015b84811015612d9457803562ffffff81168114612dff5760008081fd5b8352918301918301612de3565b600080600080600080600060e0888a031215612e2757600080fd5b612e3088612cb0565b9650612e3e60208901612cb0565b955060408801359450606088013567ffffffffffffffff80821115612e6257600080fd5b612e6e8b838c01612d2b565b955060808a0135915080821115612e8457600080fd5b612e908b838c01612d9f565b945060a08a0135915080821115612ea657600080fd5b612eb28b838c01612d2b565b935060c08a0135915080821115612ec857600080fd5b50612ed58a828b01612d9f565b91505092959891949750929550565b801515811461171157600080fd5b60008060408385031215612f0557600080fd5b8235612f1081612c9b565b91506020830135612f2081612ee4565b809150509250929050565b60008060408385031215612f3e57600080fd5b8235612f4981612c9b565b946020939093013593505050565b600080600060608486031215612f6c57600080fd5b833592506020840135612f7e81612ee4565b91506040840135612f8e81612ee4565b809150509250925092565b60008060408385031215612fac57600080fd5b8235612fb781612c9b565b91506020830135612f2081612c9b565b600060208284031215612fd957600080fd5b8135612fe481612c9b565b9392505050565b600060208284031215612ffd57600080fd5b5035919050565b60005b8381101561301f578181015183820152602001613007565b838111156107995750506000910152565b60008151808452613048816020860160208601613004565b601f01601f19169290920160200192915050565b805160608084528151908401819052600091602091908201906080860190845b818110156130a15783516001600160a01b03168352928401929184019160010161307c565b50508483015186820387850152805180835290840192506000918401905b808310156130e457835162ffffff1682529284019260019290920191908401906130bf565b506040860151935086810360408801526127ef8185613030565b6001600160a01b038681168252851660208201526040810184905260a0606082018190526000906131319083018561305c565b8281036080840152613143818561305c565b98975050505050505050565b634e487b7160e01b600052601160045260246000fd5b600082198211156131785761317861314f565b500190565b634e487b7160e01b600052603260045260246000fd5b6000828210156131a5576131a561314f565b500390565b600181811c908216806131be57607f821691505b602082108114156131df57634e487b7160e01b600052602260045260246000fd5b50919050565b634e487b7160e01b600052603160045260246000fd5b60006020828403121561320d57600080fd5b8151612fe481612c9b565b60006020828403121561322a57600080fd5b5051919050565b600081600019048311821515161561324b5761324b61314f565b500290565b60008261326d57634e487b7160e01b600052601260045260246000fd5b500490565b60006000198214156132865761328661314f565b5060010190565b60006020828403121561329f57600080fd5b8151612fe481612ee4565b600084516132bc818460208901613004565b60e89490941b6001600160e81b0319169190930190815260609190911b6bffffffffffffffffffffffff1916600382015260170192915050565b60008251613308818460208701613004565b9190910192915050565b602081526000825160a0602084015261332e60c0840182613030565b905060018060a01b0360208501511660408401526040840151606084015260608401516080840152608084015160a08401528091505092915050565b602081526000612fe4602083018461303056fea264697066735822122038a88dcd1e1c9cb96d101d297eedb0c9fcd3d1a6e4efee288c0a91d17a4f686664736f6c634300080c0033",
  "linkReferences": {},
  "deployedLinkReferences": {}
}