{
  "_format": "hh-sol-artifact-1",
  "contractName": "YgiPoolStrategy",
  "sourceName": "contracts/strategies/YGI/YgiPoolStrategy.sol",
  "abi": [
    {
      "inputs": [
        {
          "internalType": "address",
          "name": "_inputToken",
          "type": "address"
        },
        {
          "internalType": "address",
          "name": "_uniRouter",
          "type": "address"
        },
        {
          "internalType": "address",
          "name": "_weth",
          "type": "address"
        }
      ],
      "stateMutability": "nonpayable",
      "type": "constructor"
    },
    {
      "anonymous": false,
      "inputs": [
        {
          "indexed": false,
          "internalType": "uint256",
          "name": "deposited",
          "type": "uint256"
        }
      ],
      "name": "Deposit",
      "type": "event"
    },
    {
      "anonymous": false,
      "inputs": [
        {
          "indexed": true,
          "internalType": "address",
          "name": "previousOwner",
          "type": "address"
        },
        {
          "indexed": true,
          "internalType": "address",
          "name": "newOwner",
          "type": "address"
        }
      ],
      "name": "OwnershipTransferred",
      "type": "event"
    },
    {
      "anonymous": false,
      "inputs": [
        {
          "indexed": false,
          "internalType": "address",
          "name": "account",
          "type": "address"
        }
      ],
      "name": "Resumed",
      "type": "event"
    },
    {
      "anonymous": false,
      "inputs": [
        {
          "indexed": false,
          "internalType": "address",
          "name": "account",
          "type": "address"
        }
      ],
      "name": "Stopped",
      "type": "event"
    },
    {
      "anonymous": false,
      "inputs": [
        {
          "indexed": false,
          "internalType": "uint256",
          "name": "withdrawRatio",
          "type": "uint256"
        },
        {
          "indexed": false,
          "internalType": "uint256",
          "name": "withdrawAmount",
          "type": "uint256"
        }
      ],
      "name": "Withdraw",
      "type": "event"
    },
    {
      "anonymous": false,
      "inputs": [],
      "name": "WithdrawFailureSkipped",
      "type": "event"
    },
    {
      "inputs": [
        {
          "internalType": "uint256",
          "name": "_totalAmount",
          "type": "uint256"
        }
      ],
      "name": "deposit",
      "outputs": [],
      "stateMutability": "nonpayable",
      "type": "function"
    },
    {
      "inputs": [
        {
          "internalType": "address",
          "name": "_vault",
          "type": "address"
        },
        {
          "internalType": "bool",
          "name": "skipOnFail",
          "type": "bool"
        }
      ],
      "name": "deregisterYgiComponent",
      "outputs": [],
      "stateMutability": "nonpayable",
      "type": "function"
    },
    {
      "inputs": [
        {
          "internalType": "address",
          "name": "_vault",
          "type": "address"
        }
      ],
      "name": "getIndex",
      "outputs": [
        {
          "internalType": "uint256",
          "name": "",
          "type": "uint256"
        }
      ],
      "stateMutability": "view",
      "type": "function"
    },
    {
      "inputs": [],
      "name": "lastPoolDepositTime",
      "outputs": [
        {
          "internalType": "uint256",
          "name": "",
          "type": "uint256"
        }
      ],
      "stateMutability": "view",
      "type": "function"
    },
    {
      "inputs": [],
      "name": "owner",
      "outputs": [
        {
          "internalType": "address",
          "name": "",
          "type": "address"
        }
      ],
      "stateMutability": "view",
      "type": "function"
    },
    {
      "inputs": [],
      "name": "panic",
      "outputs": [],
      "stateMutability": "nonpayable",
      "type": "function"
    },
    {
      "inputs": [
        {
          "internalType": "address",
          "name": "_vault",
          "type": "address"
        },
        {
          "internalType": "uint256",
          "name": "amount",
          "type": "uint256"
        }
      ],
      "name": "rebalance",
      "outputs": [],
      "stateMutability": "nonpayable",
      "type": "function"
    },
    {
      "inputs": [
        {
          "internalType": "address",
          "name": "inputToken",
          "type": "address"
        },
        {
          "internalType": "address",
          "name": "vaultAddress",
          "type": "address"
        },
        {
          "internalType": "uint256",
          "name": "allocation",
          "type": "uint256"
        },
        {
          "internalType": "address[]",
          "name": "_route",
          "type": "address[]"
        },
        {
          "internalType": "uint24[]",
          "name": "_fee",
          "type": "uint24[]"
        },
        {
          "internalType": "address[]",
          "name": "_backRoute",
          "type": "address[]"
        },
        {
          "internalType": "uint24[]",
          "name": "_backFee",
          "type": "uint24[]"
        }
      ],
      "name": "registerYgiComponent",
      "outputs": [],
      "stateMutability": "nonpayable",
      "type": "function"
    },
    {
      "inputs": [],
      "name": "renounceOwnership",
      "outputs": [],
      "stateMutability": "nonpayable",
      "type": "function"
    },
    {
      "inputs": [],
      "name": "resume",
      "outputs": [],
      "stateMutability": "nonpayable",
      "type": "function"
    },
    {
      "inputs": [
        {
          "internalType": "address",
          "name": "_uniRouter",
          "type": "address"
        }
      ],
      "name": "setUniRouter",
      "outputs": [],
      "stateMutability": "nonpayable",
      "type": "function"
    },
    {
      "inputs": [],
      "name": "stop",
      "outputs": [],
      "stateMutability": "nonpayable",
      "type": "function"
    },
    {
      "inputs": [],
      "name": "stopped",
      "outputs": [
        {
          "internalType": "bool",
          "name": "",
          "type": "bool"
        }
      ],
      "stateMutability": "view",
      "type": "function"
    },
    {
      "inputs": [],
      "name": "totalAllocation",
      "outputs": [
        {
          "internalType": "uint256",
          "name": "",
          "type": "uint256"
        }
      ],
      "stateMutability": "view",
      "type": "function"
    },
    {
      "inputs": [
        {
          "internalType": "address",
          "name": "newOwner",
          "type": "address"
        }
      ],
      "name": "transferOwnership",
      "outputs": [],
      "stateMutability": "nonpayable",
      "type": "function"
    },
    {
      "inputs": [],
      "name": "uniRouter",
      "outputs": [
        {
          "internalType": "address",
          "name": "",
          "type": "address"
        }
      ],
      "stateMutability": "view",
      "type": "function"
    },
    {
      "inputs": [
        {
          "internalType": "address",
          "name": "",
          "type": "address"
        },
        {
          "internalType": "address",
          "name": "",
          "type": "address"
        }
      ],
      "name": "userToVaultToAmount",
      "outputs": [
        {
          "internalType": "uint256",
          "name": "",
          "type": "uint256"
        }
      ],
      "stateMutability": "view",
      "type": "function"
    },
    {
      "inputs": [],
      "name": "weth",
      "outputs": [
        {
          "internalType": "address",
          "name": "",
          "type": "address"
        }
      ],
      "stateMutability": "view",
      "type": "function"
    },
    {
      "inputs": [
        {
          "internalType": "uint256",
          "name": "_ratio",
          "type": "uint256"
        },
        {
          "internalType": "bool",
          "name": "skipOnWithdrawFail",
          "type": "bool"
        },
        {
          "internalType": "bool",
          "name": "withdrawIndividual",
          "type": "bool"
        }
      ],
      "name": "withdraw",
      "outputs": [],
      "stateMutability": "nonpayable",
      "type": "function"
    },
    {
      "inputs": [
        {
          "internalType": "uint256",
          "name": "",
          "type": "uint256"
        }
      ],
      "name": "ygiComponents",
      "outputs": [
        {
          "internalType": "address",
          "name": "inputToken",
          "type": "address"
        },
        {
          "internalType": "address",
          "name": "vault",
          "type": "address"
        },
        {
          "internalType": "uint256",
          "name": "allocation",
          "type": "uint256"
        },
        {
          "components": [
            {
              "internalType": "address[]",
              "name": "aToBRoute",
              "type": "address[]"
            },
            {
              "internalType": "uint24[]",
              "name": "aToBFees",
              "type": "uint24[]"
            },
            {
              "internalType": "bytes",
              "name": "path",
              "type": "bytes"
            }
          ],
          "internalType": "struct IYgiBasePoolStrategy.Route",
          "name": "route",
          "type": "tuple"
        },
        {
          "components": [
            {
              "internalType": "address[]",
              "name": "aToBRoute",
              "type": "address[]"
            },
            {
              "internalType": "uint24[]",
              "name": "aToBFees",
              "type": "uint24[]"
            },
            {
              "internalType": "bytes",
              "name": "path",
              "type": "bytes"
            }
          ],
          "internalType": "struct IYgiBasePoolStrategy.Route",
          "name": "backRoute",
          "type": "tuple"
        }
      ],
      "stateMutability": "view",
      "type": "function"
    },
    {
      "inputs": [],
      "name": "ygiInputToken",
      "outputs": [
        {
          "internalType": "address",
          "name": "",
          "type": "address"
        }
      ],
      "stateMutability": "view",
      "type": "function"
    }
  ],
  "bytecode": "0x60a06040523480156200001157600080fd5b5060405162003ca238038062003ca2833981016040819052620000349162000618565b6200003f336200012f565b6000805460ff60a01b1916905560018055600380546001600160a01b038085166001600160a01b0319928316179092556002805492861692909116821790556040805163313ce56760e01b8152905163313ce567916004808201926020929091908290030181865afa158015620000ba573d6000803e3d6000fd5b505050506040513d601f19601f82011682018060405250810190620000e0919062000662565b620000ed90600a620007a3565b608052600480546001600160a01b0319166001600160a01b0383811691909117909155600354600254620001269291821691166200017f565b50505062000878565b600080546001600160a01b038381166001600160a01b0319831681178455604051919092169283917f8be0079c531659141344cd1fd0a4f28419497f9722a3daafe3b4186f6b6457e09190a35050565b604051636eb1769f60e11b81523060048201526001600160a01b038381166024830152600019919083169063dd62ed3e90604401602060405180830381865afa158015620001d1573d6000803e3d6000fd5b505050506040513d601f19601f82011682018060405250810190620001f79190620007b4565b101562000225576200022582600019836001600160a01b03166200022960201b62001b50179092919060201c565b5050565b801580620002a75750604051636eb1769f60e11b81523060048201526001600160a01b03838116602483015284169063dd62ed3e90604401602060405180830381865afa1580156200027f573d6000803e3d6000fd5b505050506040513d601f19601f82011682018060405250810190620002a59190620007b4565b155b6200031f5760405162461bcd60e51b815260206004820152603660248201527f5361666545524332303a20617070726f76652066726f6d206e6f6e2d7a65726f60448201527f20746f206e6f6e2d7a65726f20616c6c6f77616e63650000000000000000000060648201526084015b60405180910390fd5b604080516001600160a01b038416602482015260448082018490528251808303909101815260649091019091526020810180516001600160e01b0390811663095ea7b360e01b17909152620003779185916200037c16565b505050565b6000620003d8826040518060400160405280602081526020017f5361666545524332303a206c6f772d6c6576656c2063616c6c206661696c6564815250856001600160a01b03166200045a60201b62001c98179092919060201c565b805190915015620003775780806020019051810190620003f99190620007ce565b620003775760405162461bcd60e51b815260206004820152602a60248201527f5361666545524332303a204552433230206f7065726174696f6e20646964206e6044820152691bdd081cdd58d8d9595960b21b606482015260840162000316565b60606200046b848460008562000473565b949350505050565b606082471015620004d65760405162461bcd60e51b815260206004820152602660248201527f416464726573733a20696e73756666696369656e742062616c616e636520666f6044820152651c8818d85b1b60d21b606482015260840162000316565b600080866001600160a01b03168587604051620004f4919062000825565b60006040518083038185875af1925050503d806000811462000533576040519150601f19603f3d011682016040523d82523d6000602084013e62000538565b606091505b5090925090506200054c8783838762000557565b979650505050505050565b60608315620005c8578251620005c0576001600160a01b0385163b620005c05760405162461bcd60e51b815260206004820152601d60248201527f416464726573733a2063616c6c20746f206e6f6e2d636f6e7472616374000000604482015260640162000316565b50816200046b565b6200046b8383815115620005df5781518083602001fd5b8060405162461bcd60e51b815260040162000316919062000843565b80516001600160a01b03811681146200061357600080fd5b919050565b6000806000606084860312156200062e57600080fd5b6200063984620005fb565b92506200064960208501620005fb565b91506200065960408501620005fb565b90509250925092565b6000602082840312156200067557600080fd5b815160ff811681146200068757600080fd5b9392505050565b634e487b7160e01b600052601160045260246000fd5b600181815b80851115620006e5578160001904821115620006c957620006c96200068e565b80851615620006d757918102915b93841c9390800290620006a9565b509250929050565b600082620006fe575060016200079d565b816200070d575060006200079d565b8160018114620007265760028114620007315762000751565b60019150506200079d565b60ff8411156200074557620007456200068e565b50506001821b6200079d565b5060208310610133831016604e8410600b841016171562000776575081810a6200079d565b620007828383620006a4565b80600019048211156200079957620007996200068e565b0290505b92915050565b60006200068760ff841683620006ed565b600060208284031215620007c757600080fd5b5051919050565b600060208284031215620007e157600080fd5b815180151581146200068757600080fd5b60005b838110156200080f578181015183820152602001620007f5565b838111156200081f576000848401525b50505050565b6000825162000839818460208701620007f2565b9190910192915050565b602081526000825180602084015262000864816040850160208701620007f2565b601f01601f19169190910160400192915050565b6080516134076200089b60003960008181610af30152610bb901526134076000f3fe608060405234801561001057600080fd5b50600436106101375760003560e01c806379203dc4116100b8578063b31610db1161007c578063b31610db14610270578063b6b55f2514610283578063b7ddf00414610296578063e814f6971461029f578063ee4e2687146102c3578063f2fde38b146102d657600080fd5b806379203dc4146101f75780638da5cb5b1461020e57806392930b451461021f57806394b38c5b14610232578063a0e47bf61461025d57600080fd5b80633da9b9d0116100ff5780633da9b9d0146101a45780633fc8cef3146101b75780634700d305146101ca578063715018a6146101d257806375f12b21146101da57600080fd5b8063046f7da21461013c57806307da68f5146101465780631defa63f1461014e578063292f5ca2146101615780632c29546b14610191575b600080fd5b6101446102e9565b005b6101446102fb565b61014461015c366004612e60565b61030b565b600254610174906001600160a01b031681565b6040516001600160a01b0390911681526020015b60405180910390f35b61014461019f366004612f46565b61056a565b6101446101b2366004612f7f565b6107b3565b600454610174906001600160a01b031681565b610144610ac7565b610144610ad7565b600054600160a01b900460ff166040519015158152602001610188565b61020060055481565b604051908152602001610188565b6000546001600160a01b0316610174565b61014461022d366004612fab565b610ae9565b610200610240366004612fed565b600860209081526000928352604080842090915290825290205481565b600354610174906001600160a01b031681565b61020061027e36600461301b565b61117a565b61014461029136600461303f565b61121b565b61020060075481565b6102b26102ad36600461303f565b611768565b604051610188959493929190613152565b6101446102d136600461301b565b611ab0565b6101446102e436600461301b565b611ada565b6102f1611caf565b6102f9611d09565b565b610303611caf565b6102f9611d54565b610313611caf565b600060405180606001604052808681526020018581526020016103368787611d9f565b81525090506000604051806060016040528085815260200184815260200161035e8686611d9f565b815250905060006040518060a001604052808b6001600160a01b031681526020018a6001600160a01b0316815260200189815260200184815260200183815250905087600560008282546103b291906131b9565b90915550506006805460018101825560009190915281517ff652222313e28459528d920b65115c16c04f3efc82aaedc97be59f3f377c0d3f600990920291820180546001600160a01b03199081166001600160a01b039384161782556020808601517ff652222313e28459528d920b65115c16c04f3efc82aaedc97be59f3f377c0d4086018054909316941693909317905560408401517ff652222313e28459528d920b65115c16c04f3efc82aaedc97be59f3f377c0d418401556060840151805180518695939492937ff652222313e28459528d920b65115c16c04f3efc82aaedc97be59f3f377c0d4201926104ad9284929101906129da565b5060208281015180516104c69260018501920190612a3f565b50604082015180516104e2916002840191602090910190612ae6565b5050506080820151805180516006840191610502918391602001906129da565b50602082810151805161051b9260018501920190612a3f565b5060408201518051610537916002840191602090910190612ae6565b505060035461055493506001600160a01b031691508c9050611e83565b61055e898b611e83565b50505050505050505050565b610572611caf565b600061057d8361117a565b9050600060068281548110610594576105946131d1565b906000526020600020906009020190508060020154600560008282546105ba91906131e7565b909155506105ca90508184611f18565b600680546105da906001906131e7565b815481106105ea576105ea6131d1565b90600052602060002090600902016006838154811061060b5761060b6131d1565b60009182526020909120825460099092020180546001600160a01b039283166001600160a01b0319918216178255600180850154908301805491909416911617909155600280830154908201556003808301805490918301906106719082908490612b5a565b50600182810180546106869284019190612b9a565b50600282018160020190805461069b906131fe565b6106a6929190612be7565b5050506006828101805490918301906106c29082908490612b5a565b50600182810180546106d79284019190612b9a565b5060028201816002019080546106ec906131fe565b6106f7929190612be7565b505050905050600680548061070e5761070e613239565b60008281526020812060096000199093019283020180546001600160a01b031990811682556001820180549091169055600281018290559060038201816107558282612c61565b610763600183016000612c7f565b610771600283016000612ca4565b50506006820160006107838282612c61565b610791600183016000612c7f565b61079f600283016000612ca4565b5050505090556107ad612181565b50505050565b6107bb611caf565b600060066107c88461117a565b815481106107d8576107d86131d1565b906000526020600020906009020190508060010160009054906101000a90046001600160a01b03166001600160a01b031663a8c62e766040518163ffffffff1660e01b8152600401602060405180830381865afa15801561083d573d6000803e3d6000fd5b505050506040513d601f19601f82011682018060405250810190610861919061324f565b6001600160a01b0316632e1a7d4d836040518263ffffffff1660e01b815260040161088e91815260200190565b600060405180830381600087803b1580156108a857600080fd5b505af11580156108bc573d6000803e3d6000fd5b505082546040516370a0823160e01b8152306004820152600093506001600160a01b0390911691506370a0823190602401602060405180830381865afa15801561090a573d6000803e3d6000fd5b505050506040513d601f19601f8201168201806040525081019061092e919061326c565b90508015610abf57604080516006840180546080602082028401810190945260608301818152610abd948694939284929184919084018282801561099b57602002820191906000526020600020905b81546001600160a01b0316815260019091019060200180831161097d575b5050505050815260200160018201805480602002602001604051908101604052809291908181526020018280548015610a1d57602002820191906000526020600020906000905b82829054906101000a900462ffffff1662ffffff16815260200190600301906020826002010492830192600103820291508084116109e25790505b50505050508152602001600282018054610a36906131fe565b80601f0160208091040260200160405190810160405280929190818152602001828054610a62906131fe565b8015610aaf5780601f10610a8457610100808354040283529160200191610aaf565b820191906000526020600020905b815481529060010190602001808311610a9257829003601f168201915b5050505050815250506124f6565b505b6107ad612181565b610acf611caf565b6102f96102fb565b610adf611caf565b6102f96000612540565b610af1612590565b7f0000000000000000000000000000000000000000000000000000000000000000831115610b575760405162461bcd60e51b815260206004820152600e60248201526d0a4c2e8d2de40e8dede40d0d2ced60931b60448201526064015b60405180910390fd5b6000805b600654811015610fc457600060068281548110610b7a57610b7a6131d1565b60009182526020808320600160099093020191909101543383526008825260408084206001600160a01b039092168085529190925290822054909250907f0000000000000000000000000000000000000000000000000000000000000000610be28984613285565b610bec91906132a4565b6040516370a0823160e01b81523060048201529091506000906001600160a01b038516906370a0823190602401602060405180830381865afa158015610c36573d6000803e3d6000fd5b505050506040513d601f19601f82011682018060405250810190610c5a919061326c565b604051632e1a7d4d60e01b8152600481018490529091506001600160a01b03851690632e1a7d4d90602401600060405180830381600087803b158015610c9f57600080fd5b505af1925050508015610cb0575060015b610d225787610cf55760405162461bcd60e51b815260206004820152601160248201527015da5d1a191c985dd85b0819985a5b1959607a1b6044820152606401610b4e565b6040517ec5d4fb94698efcffde29759595c5def502ec9f2ca5b77b0e49b0c07967e9c090600090a1610e03565b6040516370a0823160e01b81523060048201526000906001600160a01b038616906370a0823190602401602060405180830381865afa158015610d69573d6000803e3d6000fd5b505050506040513d601f19601f82011682018060405250810190610d8d919061326c565b9050610d9981836131e7565b336000908152600860205260408120600680549192918a908110610dbf57610dbf6131d1565b60009182526020808320600160099093020191909101546001600160a01b0316835282019290925260400181208054909190610dfc9084906131e7565b9091555050505b86610fad57600060068681548110610e1d57610e1d6131d1565b60009182526020909120600990910201546040516370a0823160e01b81523060048201526001600160a01b03909116906370a0823190602401602060405180830381865afa158015610e73573d6000803e3d6000fd5b505050506040513d601f19601f82011682018060405250810190610e97919061326c565b90508015610fab57610f9e8160068881548110610eb657610eb66131d1565b90600052602060002090600902016006016040518060600160405290816000820180548060200260200160405190810160405280929190818152602001828054801561099b576020028201919060005260206000209081546001600160a01b0316815260019091019060200180831161097d575050505050815260200160018201805480602002602001604051908101604052809291908181526020018280548015610a1d576000918252602091829020805462ffffff1684529082028301929091600391018084116109e257905050505050508152602001600282018054610a36906131fe565b610fa890886131b9565b96505b505b505050508080610fbc906132c6565b915050610b5b565b50811561111a5760005b60065481101561111457600060068281548110610fed57610fed6131d1565b60009182526020909120600990910201546040516370a0823160e01b81523060048201526001600160a01b03909116906370a0823190602401602060405180830381865afa158015611043573d6000803e3d6000fd5b505050506040513d601f19601f82011682018060405250810190611067919061326c565b90506006828154811061107c5761107c6131d1565b600091825260209091206009909102015460405163a9059cbb60e01b8152336004820152602481018390526001600160a01b039091169063a9059cbb906044016020604051808303816000875af11580156110db573d6000803e3d6000fd5b505050506040513d601f19601f820116820180604052508101906110ff91906132e1565b5050808061110c906132c6565b915050610fce565b5061116b565b600254611131906001600160a01b031633836125ea565b60408051858152602081018390527f56ca301a9219608c91e7bcee90e083c19671d2cdcc96752c7af291cee5f9c8c8910160405180910390a15b5061117560018055565b505050565b6000805b6006548110156111e057826001600160a01b0316600682815481106111a5576111a56131d1565b60009182526020909120600160099092020101546001600160a01b031614156111ce5792915050565b806111d8816132c6565b91505061117e565b5060405162461bcd60e51b815260206004820152600f60248201526e15985d5b1d081b9bdd08199bdd5b99608a1b6044820152606401610b4e565b611223612590565b61122b61261a565b600254611243906001600160a01b0316333084612669565b60005b60065481101561172457600060068281548110611265576112656131d1565b90600052602060002090600902016002015490506000670de0b6b3a7640000600554670de0b6b3a76400008461129b9190613285565b6112a591906132a4565b6112af9086613285565b6112b991906132a4565b905060006113bc82600686815481106112d4576112d46131d1565b90600052602060002090600902016003016040518060600160405290816000820180548060200260200160405190810160405280929190818152602001828054801561099b576020028201919060005260206000209081546001600160a01b0316815260019091019060200180831161097d575050505050815260200160018201805480602002602001604051908101604052809291908181526020018280548015610a1d576000918252602091829020805462ffffff1684529082028301929091600391018084116109e257905050505050508152602001600282018054610a36906131fe565b9050801561170e576000600685815481106113d9576113d96131d1565b60009182526020909120600990910201600101546040516370a0823160e01b81523060048201526001600160a01b03909116906370a0823190602401602060405180830381865afa158015611432573d6000803e3d6000fd5b505050506040513d601f19601f82011682018060405250810190611456919061326c565b905060006001600160a01b031660068681548110611476576114766131d1565b60009182526020909120600990910201546001600160a01b031614156115825760048054604051632e1a7d4d60e01b81529182018490526001600160a01b031690632e1a7d4d90602401600060405180830381600087803b1580156114da57600080fd5b505af11580156114ee573d6000803e3d6000fd5b5050505060068581548110611505576115056131d1565b906000526020600020906009020160010160009054906101000a90046001600160a01b03166001600160a01b031663d0e30db0836040518263ffffffff1660e01b81526004016000604051808303818588803b15801561156457600080fd5b505af1158015611578573d6000803e3d6000fd5b5050505050611605565b60068581548110611595576115956131d1565b600091825260209091206009909102016001015460405163b6b55f2560e01b8152600481018490526001600160a01b039091169063b6b55f2590602401600060405180830381600087803b1580156115ec57600080fd5b505af1158015611600573d6000803e3d6000fd5b505050505b60006006868154811061161a5761161a6131d1565b60009182526020909120600990910201600101546040516370a0823160e01b81523060048201526001600160a01b03909116906370a0823190602401602060405180830381865afa158015611673573d6000803e3d6000fd5b505050506040513d601f19601f82011682018060405250810190611697919061326c565b90506116a382826131e7565b336000908152600860205260408120600680549192918a9081106116c9576116c96131d1565b60009182526020808320600160099093020191909101546001600160a01b03168352820192909252604001812080549091906117069084906131b9565b909155505050505b505050808061171c906132c6565b915050611246565b50426007556040518181527f4d6ce1e535dbade1c23defba91e23b8f791ce5edc0cc320257a2b364e4e384269060200160405180910390a161176560018055565b50565b6006818154811061177857600080fd5b600091825260209182902060099091020180546001820154600283015460408051600386018054608098810283018901909352606082018381526001600160a01b0396871699509490951696929594909390928492849184018282801561180857602002820191906000526020600020905b81546001600160a01b031681526001909101906020018083116117ea575b505050505081526020016001820180548060200260200160405190810160405280929190818152602001828054801561188a57602002820191906000526020600020906000905b82829054906101000a900462ffffff1662ffffff168152602001906003019060208260020104928301926001038202915080841161184f5790505b505050505081526020016002820180546118a3906131fe565b80601f01602080910402602001604051908101604052809291908181526020018280546118cf906131fe565b801561191c5780601f106118f15761010080835404028352916020019161191c565b820191906000526020600020905b8154815290600101906020018083116118ff57829003601f168201915b50505050508152505090806006016040518060600160405290816000820180548060200260200160405190810160405280929190818152602001828054801561198e57602002820191906000526020600020905b81546001600160a01b03168152600190910190602001808311611970575b5050505050815260200160018201805480602002602001604051908101604052809291908181526020018280548015611a1057602002820191906000526020600020906000905b82829054906101000a900462ffffff1662ffffff16815260200190600301906020826002010492830192600103820291508084116119d55790505b50505050508152602001600282018054611a29906131fe565b80601f0160208091040260200160405190810160405280929190818152602001828054611a55906131fe565b8015611aa25780601f10611a7757610100808354040283529160200191611aa2565b820191906000526020600020905b815481529060010190602001808311611a8557829003601f168201915b505050505081525050905085565b611ab8611caf565b600380546001600160a01b0319166001600160a01b0392909216919091179055565b611ae2611caf565b6001600160a01b038116611b475760405162461bcd60e51b815260206004820152602660248201527f4f776e61626c653a206e6577206f776e657220697320746865207a65726f206160448201526564647265737360d01b6064820152608401610b4e565b61176581612540565b801580611bca5750604051636eb1769f60e11b81523060048201526001600160a01b03838116602483015284169063dd62ed3e90604401602060405180830381865afa158015611ba4573d6000803e3d6000fd5b505050506040513d601f19601f82011682018060405250810190611bc8919061326c565b155b611c355760405162461bcd60e51b815260206004820152603660248201527f5361666545524332303a20617070726f76652066726f6d206e6f6e2d7a65726f60448201527520746f206e6f6e2d7a65726f20616c6c6f77616e636560501b6064820152608401610b4e565b6040516001600160a01b03831660248201526044810182905261117590849063095ea7b360e01b906064015b60408051601f198184030181529190526020810180516001600160e01b03166001600160e01b0319909316929092179091526126a1565b6060611ca78484600085612773565b949350505050565b6000546001600160a01b031633146102f95760405162461bcd60e51b815260206004820181905260248201527f4f776e61626c653a2063616c6c6572206973206e6f7420746865206f776e65726044820152606401610b4e565b611d1161284e565b6000805460ff60a01b191690556040513381527f5d287a3a02ade76478d8449abebe9dc45b38421247132b68127dd3cd6c05f3cf906020015b60405180910390a1565b611d5c61261a565b6000805460ff60a01b1916600160a01b1790556040513381527f55c4adf1f68f084b809304657594a92ba835ada8d3b5340955bf05746723c05b90602001611d4a565b606082600081518110611db457611db46131d1565b6020026020010151604051602001611de4919060609190911b6bffffffffffffffffffffffff1916815260140190565b60408051601f19818403018152919052825190915060005b81811015611e7b5782848281518110611e1757611e176131d1565b602002602001015186836001611e2d91906131b9565b81518110611e3d57611e3d6131d1565b6020026020010151604051602001611e57939291906132fe565b60405160208183030381529060405292508080611e73906132c6565b915050611dfc565b505092915050565b604051636eb1769f60e11b81523060048201526001600160a01b038381166024830152600019919083169063dd62ed3e90604401602060405180830381865afa158015611ed4573d6000803e3d6000fd5b505050506040513d601f19601f82011682018060405250810190611ef8919061326c565b1015611f1457611f146001600160a01b03821683600019611b50565b5050565b60018201546040516370a0823160e01b81523060048201526001600160a01b039091169060009082906370a0823190602401602060405180830381865afa158015611f67573d6000803e3d6000fd5b505050506040513d601f19601f82011682018060405250810190611f8b919061326c565b604051632e1a7d4d60e01b8152600481018290529091506001600160a01b03831690632e1a7d4d90602401600060405180830381600087803b158015611fd057600080fd5b505af1925050508015611fe1575060015b61202c57826120275760405162461bcd60e51b815260206004820152601260248201527115da5d1a191c985dd05b1b0819985a5b195960721b6044820152606401610b4e565b6107ad565b83546040516370a0823160e01b81523060048201526000916001600160a01b0316906370a0823190602401602060405180830381865afa158015612074573d6000803e3d6000fd5b505050506040513d601f19601f82011682018060405250810190612098919061326c565b9050801561217a57604080516006870180546080602082028401810190945260608301818152612178948694939284929184919084018282801561099b576020028201919060005260206000209081546001600160a01b0316815260019091019060200180831161097d575050505050815260200160018201805480602002602001604051908101604052809291908181526020018280548015610a1d576000918252602091829020805462ffffff1684529082028301929091600391018084116109e257905050505050508152602001600282018054610a36906131fe565b505b5050505050565b6002546040516370a0823160e01b81523060048201526000916001600160a01b0316906370a0823190602401602060405180830381865afa1580156121ca573d6000803e3d6000fd5b505050506040513d601f19601f820116820180604052508101906121ee919061326c565b905080156117655760005b600654811015611f1457600060068281548110612218576122186131d1565b90600052602060002090600902016002015490506000670de0b6b3a7640000600554670de0b6b3a76400008461224e9190613285565b61225891906132a4565b6122629086613285565b61226c91906132a4565b9050600061228782600686815481106112d4576112d46131d1565b905080156124e0576000600685815481106122a4576122a46131d1565b60009182526020918290206001600990920201015460408051635463173b60e11b815290516001600160a01b039092169263a8c62e76926004808401938290030181865afa1580156122fa573d6000803e3d6000fd5b505050506040513d601f19601f8201168201806040525081019061231e919061324f565b905060006001600160a01b0316816001600160a01b03166301b60ef26040518163ffffffff1660e01b8152600401602060405180830381865afa158015612369573d6000803e3d6000fd5b505050506040513d601f19601f8201168201806040525081019061238d919061324f565b6001600160a01b031614156124515760048054604051632e1a7d4d60e01b81529182018490526001600160a01b031690632e1a7d4d90602401600060405180830381600087803b1580156123e057600080fd5b505af11580156123f4573d6000803e3d6000fd5b50505050806001600160a01b031663d0e30db0836040518263ffffffff1660e01b81526004016000604051808303818588803b15801561243357600080fd5b505af1158015612447573d6000803e3d6000fd5b50505050506124de565b61248a818360068881548110612469576124696131d1565b60009182526020909120600990910201546001600160a01b031691906125ea565b806001600160a01b031663d0e30db06040518163ffffffff1660e01b8152600401600060405180830381600087803b1580156124c557600080fd5b505af11580156124d9573d6000803e3d6000fd5b505050505b505b50505080806124ee906132c6565b9150506121f9565b60008160400151516000141561250d57508161253a565b821561253657600354604083015161252f916001600160a01b031690856128a0565b905061253a565b5060005b92915050565b600080546001600160a01b038381166001600160a01b0319831681178455604051919092169283917f8be0079c531659141344cd1fd0a4f28419497f9722a3daafe3b4186f6b6457e09190a35050565b600260015414156125e35760405162461bcd60e51b815260206004820152601f60248201527f5265656e7472616e637947756172643a207265656e7472616e742063616c6c006044820152606401610b4e565b6002600155565b6040516001600160a01b03831660248201526044810182905261117590849063a9059cbb60e01b90606401611c61565b600054600160a01b900460ff16156102f95760405162461bcd60e51b815260206004820152601260248201527114dd1bdc1c18589b194e881cdd1bdc1c195960721b6044820152606401610b4e565b6040516001600160a01b03808516602483015283166044820152606481018290526107ad9085906323b872dd60e01b90608401611c61565b60006126f6826040518060400160405280602081526020017f5361666545524332303a206c6f772d6c6576656c2063616c6c206661696c6564815250856001600160a01b0316611c989092919063ffffffff16565b805190915015611175578080602001905181019061271491906132e1565b6111755760405162461bcd60e51b815260206004820152602a60248201527f5361666545524332303a204552433230206f7065726174696f6e20646964206e6044820152691bdd081cdd58d8d9595960b21b6064820152608401610b4e565b6060824710156127d45760405162461bcd60e51b815260206004820152602660248201527f416464726573733a20696e73756666696369656e742062616c616e636520666f6044820152651c8818d85b1b60d21b6064820152608401610b4e565b600080866001600160a01b031685876040516127f0919061334a565b60006040518083038185875af1925050503d806000811461282d576040519150601f19603f3d011682016040523d82523d6000602084013e612832565b606091505b50915091506128438783838761293f565b979650505050505050565b600054600160a01b900460ff166102f95760405162461bcd60e51b815260206004820152601660248201527514dd1bdc1c18589b194e881b9bdd081cdd1bdc1c195960521b6044820152606401610b4e565b6040805160a081018252838152306020820152428183015260608101839052600060808201819052915163c04b8d5960e01b81526001600160a01b0386169063c04b8d59906128f3908490600401613366565b6020604051808303816000875af1158015612912573d6000803e3d6000fd5b505050506040513d601f19601f82011682018060405250810190612936919061326c565b95945050505050565b606083156129ab5782516129a4576001600160a01b0385163b6129a45760405162461bcd60e51b815260206004820152601d60248201527f416464726573733a2063616c6c20746f206e6f6e2d636f6e74726163740000006044820152606401610b4e565b5081611ca7565b611ca783838151156129c05781518083602001fd5b8060405162461bcd60e51b8152600401610b4e91906133be565b828054828255906000526020600020908101928215612a2f579160200282015b82811115612a2f57825182546001600160a01b0319166001600160a01b039091161782556020909201916001909101906129fa565b50612a3b929150612cda565b5090565b82805482825590600052602060002090600901600a90048101928215612a2f5791602002820160005b83821115612aaa57835183826101000a81548162ffffff021916908362ffffff1602179055509260200192600301602081600201049283019260010302612a68565b8015612ad95782816101000a81549062ffffff0219169055600301602081600201049283019260010302612aaa565b5050612a3b929150612cda565b828054612af2906131fe565b90600052602060002090601f016020900481019282612b145760008555612a2f565b82601f10612b2d57805160ff1916838001178555612a2f565b82800160010185558215612a2f579182015b82811115612a2f578251825591602001919060010190612b3f565b828054828255906000526020600020908101928215612a2f5760005260206000209182015b82811115612a2f578254825591600101919060010190612b7f565b82805482825590600052602060002090600901600a90048101928215612a2f57600052602060002091600901600a9004820182811115612a2f578254825591600101919060010190612b7f565b828054612bf3906131fe565b90600052602060002090601f016020900481019282612c155760008555612a2f565b82601f10612c265780548555612a2f565b82800160010185558215612a2f57600052602060002091601f0160209004820182811115612a2f578254825591600101919060010190612b7f565b50805460008255906000526020600020908101906117659190612cda565b50805460008255600901600a9004906000526020600020908101906117659190612cda565b508054612cb0906131fe565b6000825580601f10612cc0575050565b601f01602090049060005260206000209081019061176591905b5b80821115612a3b5760008155600101612cdb565b6001600160a01b038116811461176557600080fd5b8035612d0f81612cef565b919050565b634e487b7160e01b600052604160045260246000fd5b604051601f8201601f1916810167ffffffffffffffff81118282101715612d5357612d53612d14565b604052919050565b600067ffffffffffffffff821115612d7557612d75612d14565b5060051b60200190565b600082601f830112612d9057600080fd5b81356020612da5612da083612d5b565b612d2a565b82815260059290921b84018101918181019086841115612dc457600080fd5b8286015b84811015612de8578035612ddb81612cef565b8352918301918301612dc8565b509695505050505050565b600082601f830112612e0457600080fd5b81356020612e14612da083612d5b565b82815260059290921b84018101918181019086841115612e3357600080fd5b8286015b84811015612de857803562ffffff81168114612e535760008081fd5b8352918301918301612e37565b600080600080600080600060e0888a031215612e7b57600080fd5b612e8488612d04565b9650612e9260208901612d04565b955060408801359450606088013567ffffffffffffffff80821115612eb657600080fd5b612ec28b838c01612d7f565b955060808a0135915080821115612ed857600080fd5b612ee48b838c01612df3565b945060a08a0135915080821115612efa57600080fd5b612f068b838c01612d7f565b935060c08a0135915080821115612f1c57600080fd5b50612f298a828b01612df3565b91505092959891949750929550565b801515811461176557600080fd5b60008060408385031215612f5957600080fd5b8235612f6481612cef565b91506020830135612f7481612f38565b809150509250929050565b60008060408385031215612f9257600080fd5b8235612f9d81612cef565b946020939093013593505050565b600080600060608486031215612fc057600080fd5b833592506020840135612fd281612f38565b91506040840135612fe281612f38565b809150509250925092565b6000806040838503121561300057600080fd5b823561300b81612cef565b91506020830135612f7481612cef565b60006020828403121561302d57600080fd5b813561303881612cef565b9392505050565b60006020828403121561305157600080fd5b5035919050565b60005b8381101561307357818101518382015260200161305b565b838111156107ad5750506000910152565b6000815180845261309c816020860160208601613058565b601f01601f19169290920160200192915050565b805160608084528151908401819052600091602091908201906080860190845b818110156130f55783516001600160a01b0316835292840192918401916001016130d0565b50508483015186820387850152805180835290840192506000918401905b8083101561313857835162ffffff168252928401926001929092019190840190613113565b506040860151935086810360408801526128438185613084565b6001600160a01b038681168252851660208201526040810184905260a060608201819052600090613185908301856130b0565b828103608084015261319781856130b0565b98975050505050505050565b634e487b7160e01b600052601160045260246000fd5b600082198211156131cc576131cc6131a3565b500190565b634e487b7160e01b600052603260045260246000fd5b6000828210156131f9576131f96131a3565b500390565b600181811c9082168061321257607f821691505b6020821081141561323357634e487b7160e01b600052602260045260246000fd5b50919050565b634e487b7160e01b600052603160045260246000fd5b60006020828403121561326157600080fd5b815161303881612cef565b60006020828403121561327e57600080fd5b5051919050565b600081600019048311821515161561329f5761329f6131a3565b500290565b6000826132c157634e487b7160e01b600052601260045260246000fd5b500490565b60006000198214156132da576132da6131a3565b5060010190565b6000602082840312156132f357600080fd5b815161303881612f38565b60008451613310818460208901613058565b60e89490941b6001600160e81b0319169190930190815260609190911b6bffffffffffffffffffffffff1916600382015260170192915050565b6000825161335c818460208701613058565b9190910192915050565b602081526000825160a0602084015261338260c0840182613084565b905060018060a01b0360208501511660408401526040840151606084015260608401516080840152608084015160a08401528091505092915050565b602081526000613038602083018461308456fea264697066735822122091d9bbeb64d7208db0d3d3e48d17145a06b0b22ea9a842346e5aeacd090e078364736f6c634300080c0033",
  "linkReferences": {},
  "deployedLinkReferences": {}
}